{
  "contractName": "AllocationContract",
  "abi": [
    {
      "inputs": [
        {
          "internalType": "address",
          "name": "_officialsContractAddress",
          "type": "address"
        }
      ],
      "stateMutability": "nonpayable",
      "type": "constructor"
    },
    {
      "inputs": [],
      "name": "AllocTypeRequired",
      "type": "error"
    },
    {
      "inputs": [],
      "name": "ApprovalRequired",
      "type": "error"
    },
    {
      "inputs": [],
      "name": "DocumentHashRequired",
      "type": "error"
    },
    {
      "inputs": [],
      "name": "FundTypeRequired",
      "type": "error"
    },
    {
      "inputs": [],
      "name": "InvalidAddress",
      "type": "error"
    },
    {
      "inputs": [],
      "name": "InvalidAllocationID",
      "type": "error"
    },
    {
      "inputs": [],
      "name": "InvalidAllocationType",
      "type": "error"
    },
    {
      "inputs": [],
      "name": "InvalidAmount",
      "type": "error"
    },
    {
      "inputs": [],
      "name": "InvalidDocumentHash",
      "type": "error"
    },
    {
      "inputs": [],
      "name": "NotActiveOfficial",
      "type": "error"
    },
    {
      "inputs": [],
      "name": "OffsetOutOfBounds",
      "type": "error"
    },
    {
      "inputs": [],
      "name": "ReentrantCall",
      "type": "error"
    },
    {
      "anonymous": false,
      "inputs": [
        {
          "indexed": true,
          "internalType": "uint256",
          "name": "id",
          "type": "uint256"
        },
        {
          "indexed": true,
          "internalType": "uint256",
          "name": "amount",
          "type": "uint256"
        },
        {
          "indexed": false,
          "internalType": "string",
          "name": "allocationType",
          "type": "string"
        },
        {
          "indexed": true,
          "internalType": "address",
          "name": "treasurerAddress",
          "type": "address"
        },
        {
          "indexed": false,
          "internalType": "address",
          "name": "chairmanAddress",
          "type": "address"
        },
        {
          "indexed": false,
          "internalType": "uint256",
          "name": "timestamp",
          "type": "uint256"
        }
      ],
      "name": "AllocationRecorded",
      "type": "event"
    },
    {
      "inputs": [],
      "name": "allocationCount",
      "outputs": [
        {
          "internalType": "uint256",
          "name": "",
          "type": "uint256"
        }
      ],
      "stateMutability": "view",
      "type": "function",
      "constant": true
    },
    {
      "inputs": [],
      "name": "officialsContract",
      "outputs": [
        {
          "internalType": "contract IBarangayOfficials",
          "name": "",
          "type": "address"
        }
      ],
      "stateMutability": "view",
      "type": "function",
      "constant": true
    },
    {
      "inputs": [
        {
          "internalType": "uint256",
          "name": "_amount",
          "type": "uint256"
        },
        {
          "internalType": "string",
          "name": "_allocationType",
          "type": "string"
        },
        {
          "internalType": "string",
          "name": "_fundType",
          "type": "string"
        },
        {
          "internalType": "string",
          "name": "_documentHash",
          "type": "string"
        },
        {
          "internalType": "address",
          "name": "_treasurerAddress",
          "type": "address"
        },
        {
          "internalType": "address",
          "name": "_chairmanAddress",
          "type": "address"
        }
      ],
      "name": "recordAllocation",
      "outputs": [
        {
          "internalType": "uint256",
          "name": "",
          "type": "uint256"
        }
      ],
      "stateMutability": "nonpayable",
      "type": "function"
    },
    {
      "inputs": [],
      "name": "getTotalAllocationAmount",
      "outputs": [
        {
          "internalType": "uint256",
          "name": "",
          "type": "uint256"
        }
      ],
      "stateMutability": "view",
      "type": "function",
      "constant": true
    },
    {
      "inputs": [
        {
          "internalType": "uint256",
          "name": "_id",
          "type": "uint256"
        }
      ],
      "name": "getAllocation",
      "outputs": [
        {
          "components": [
            {
              "internalType": "uint256",
              "name": "id",
              "type": "uint256"
            },
            {
              "internalType": "uint256",
              "name": "amount",
              "type": "uint256"
            },
            {
              "internalType": "string",
              "name": "allocationType",
              "type": "string"
            },
            {
              "internalType": "string",
              "name": "fundType",
              "type": "string"
            },
            {
              "internalType": "string",
              "name": "documentHash",
              "type": "string"
            },
            {
              "internalType": "address",
              "name": "treasurerAddress",
              "type": "address"
            },
            {
              "internalType": "address",
              "name": "chairmanAddress",
              "type": "address"
            },
            {
              "internalType": "uint256",
              "name": "timestamp",
              "type": "uint256"
            }
          ],
          "internalType": "struct AllocationContract.Allocation",
          "name": "",
          "type": "tuple"
        }
      ],
      "stateMutability": "view",
      "type": "function",
      "constant": true
    },
    {
      "inputs": [],
      "name": "getAllAllocations",
      "outputs": [
        {
          "components": [
            {
              "internalType": "uint256",
              "name": "id",
              "type": "uint256"
            },
            {
              "internalType": "uint256",
              "name": "amount",
              "type": "uint256"
            },
            {
              "internalType": "string",
              "name": "allocationType",
              "type": "string"
            },
            {
              "internalType": "string",
              "name": "fundType",
              "type": "string"
            },
            {
              "internalType": "string",
              "name": "documentHash",
              "type": "string"
            },
            {
              "internalType": "address",
              "name": "treasurerAddress",
              "type": "address"
            },
            {
              "internalType": "address",
              "name": "chairmanAddress",
              "type": "address"
            },
            {
              "internalType": "uint256",
              "name": "timestamp",
              "type": "uint256"
            }
          ],
          "internalType": "struct AllocationContract.Allocation[]",
          "name": "",
          "type": "tuple[]"
        }
      ],
      "stateMutability": "view",
      "type": "function",
      "constant": true
    },
    {
      "inputs": [
        {
          "internalType": "uint256",
          "name": "_offset",
          "type": "uint256"
        },
        {
          "internalType": "uint256",
          "name": "_limit",
          "type": "uint256"
        }
      ],
      "name": "getAllocationsPaginated",
      "outputs": [
        {
          "components": [
            {
              "internalType": "uint256",
              "name": "id",
              "type": "uint256"
            },
            {
              "internalType": "uint256",
              "name": "amount",
              "type": "uint256"
            },
            {
              "internalType": "string",
              "name": "allocationType",
              "type": "string"
            },
            {
              "internalType": "string",
              "name": "fundType",
              "type": "string"
            },
            {
              "internalType": "string",
              "name": "documentHash",
              "type": "string"
            },
            {
              "internalType": "address",
              "name": "treasurerAddress",
              "type": "address"
            },
            {
              "internalType": "address",
              "name": "chairmanAddress",
              "type": "address"
            },
            {
              "internalType": "uint256",
              "name": "timestamp",
              "type": "uint256"
            }
          ],
          "internalType": "struct AllocationContract.Allocation[]",
          "name": "",
          "type": "tuple[]"
        }
      ],
      "stateMutability": "view",
      "type": "function",
      "constant": true
    },
    {
      "inputs": [
        {
          "internalType": "uint256",
          "name": "_id",
          "type": "uint256"
        },
        {
          "internalType": "string",
          "name": "_documentHash",
          "type": "string"
        }
      ],
      "name": "verifyAllocationDocument",
      "outputs": [
        {
          "internalType": "bool",
          "name": "",
          "type": "bool"
        }
      ],
      "stateMutability": "view",
      "type": "function",
      "constant": true
    },
    {
      "inputs": [],
      "name": "getValidAllocationTypes",
      "outputs": [
        {
          "internalType": "string[8]",
          "name": "",
          "type": "string[8]"
        }
      ],
      "stateMutability": "pure",
      "type": "function",
      "constant": true
    }
  ],
  "bytecode": "0x60806040523480156200001157600080fd5b5060405162001d1638038062001d16833981016040819052620000349162000365565b6001600160a01b0381166200005c5760405163e6c4247b60e01b815260040160405180910390fd5b600080546001600160a01b0319166001600160a01b0383161781556001808055604080518082018252601f81527f426172616e67617920446576656c6f706d656e742046756e64202842445029006020918201527f312fcf26d2cc4b29d0c62db1f8bf5bd2b3e8bcace2971500d3b8454830604de0805460ff19908116851790915582518084018452601e81527f53616e6767756e69616e67204b6162617461616e2028534b292046756e640000908301527f7c1e8a3b5ace1b40747900349e98dc84278cad7f378984b088ef11707a0360ba805482168517905582518084018452601681527f43616c616d6974792046756e6420284c4452524d462900000000000000000000908301527ffe1322148b91c082f6819d37d7d7197237490edf935658d44eafa239417ae9db855260028083527f22bf7e2f036ea46990aa6b8786fb0417d14a05106c9d0d90e1a7446ee26223d68054909216851790915582516060810190935260218084529394909390929162001c5a9083013980519060200120815260200190815260200160002060006101000a81548160ff02191690831515021790555060016002600060405180606001604052806034815260200162001cb36034913980519060200120815260200190815260200160002060006101000a81548160ff02191690831515021790555060016002600060405180606001604052806038815260200162001c7b60389139805160209182012082528181019290925260409081016000908120805494151560ff1995861617905581518083018352601681527f506572736f6e616c205365727669636573202850532900000000000000000000908401527faa0dffe69a959afa6eead12628b82bb9a081ebb08074dd892446daa64abaeb8e815260028084527fe1cd3d861f2ede1682cc59b4c3733dd31b4d330104cbc8e1420369449f058e5b80549095166001908117909555825160608101909352602f808452909391929162001ce79083013980516020918201208252810191909152604001600020805460ff19169115159190911790555062000397565b6000602082840312156200037857600080fd5b81516001600160a01b03811681146200039057600080fd5b9392505050565b6118b380620003a76000396000f3fe608060405234801561001057600080fd5b50600436106100935760003560e01c80635a5804b3116100665780635a5804b314610101578063a7faf61214610121578063cd8227f914610142578063cdcfe2ea1461014b578063d4622ae11461015357600080fd5b80631ca00f62146100985780633ed72939146100b65780635670403c146100cb5780635750e5c3146100de575b600080fd5b6100a061017e565b6040516100ad919061128a565b60405180910390f35b6100be6103da565b6040516100ad91906112ec565b6100a06100d936600461133a565b610546565b6100f16100ec3660046113ff565b610860565b60405190151581526020016100ad565b61011461010f366004611446565b6108e1565b6040516100ad919061145f565b61013461012f366004611495565b610b47565b6040519081526020016100ad565b61013460045481565b600554610134565b600054610166906001600160a01b031681565b6040516001600160a01b0390911681526020016100ad565b60606003805480602002602001604051908101604052809291908181526020016000905b828210156103d157838290600052602060002090600802016040518061010001604052908160008201548152602001600182015481526020016002820180546101ea90611547565b80601f016020809104026020016040519081016040528092919081815260200182805461021690611547565b80156102635780601f1061023857610100808354040283529160200191610263565b820191906000526020600020905b81548152906001019060200180831161024657829003601f168201915b5050505050815260200160038201805461027c90611547565b80601f01602080910402602001604051908101604052809291908181526020018280546102a890611547565b80156102f55780601f106102ca576101008083540402835291602001916102f5565b820191906000526020600020905b8154815290600101906020018083116102d857829003601f168201915b5050505050815260200160048201805461030e90611547565b80601f016020809104026020016040519081016040528092919081815260200182805461033a90611547565b80156103875780601f1061035c57610100808354040283529160200191610387565b820191906000526020600020905b81548152906001019060200180831161036a57829003601f168201915b505050918352505060058201546001600160a01b039081166020808401919091526006840154909116604083015260079092015460609091015290825260019290920191016101a2565b50505050905090565b6103e2611123565b6040518061010001604052806040518060400160405280601f81526020017f426172616e67617920446576656c6f706d656e742046756e642028424450290081525081526020016040518060400160405280601e81526020017f53616e6767756e69616e67204b6162617461616e2028534b292046756e64000081525081526020016040518060400160405280601681526020017543616c616d6974792046756e6420284c4452524d462960501b81525081526020016040518060600160405280602181526020016117c260219139815260200160405180606001604052806034815260200161181b6034913981526020016040518060600160405280603881526020016117e360389139815260200160405180604001604052806016815260200175506572736f6e616c205365727669636573202850532960501b81525081526020016040518060600160405280602f815260200161184f602f91399052919050565b6060600454831061056a576040516309605a0160e41b815260040160405180910390fd5b60006105768385611597565b905060045481111561058757506004545b600061059385836115aa565b905060008167ffffffffffffffff8111156105b0576105b061135c565b6040519080825280602002602001820160405280156105e957816020015b6105d661114b565b8152602001906001900390816105ce5790505b50905060005b828110156108545760036106038289611597565b81548110610613576106136115bd565b906000526020600020906008020160405180610100016040529081600082015481526020016001820154815260200160028201805461065190611547565b80601f016020809104026020016040519081016040528092919081815260200182805461067d90611547565b80156106ca5780601f1061069f576101008083540402835291602001916106ca565b820191906000526020600020905b8154815290600101906020018083116106ad57829003601f168201915b505050505081526020016003820180546106e390611547565b80601f016020809104026020016040519081016040528092919081815260200182805461070f90611547565b801561075c5780601f106107315761010080835404028352916020019161075c565b820191906000526020600020905b81548152906001019060200180831161073f57829003601f168201915b5050505050815260200160048201805461077590611547565b80601f01602080910402602001604051908101604052809291908181526020018280546107a190611547565b80156107ee5780601f106107c3576101008083540402835291602001916107ee565b820191906000526020600020905b8154815290600101906020018083116107d157829003601f168201915b505050918352505060058201546001600160a01b03908116602083015260068301541660408201526007909101546060909101528251839083908110610836576108366115bd565b6020026020010181905250808061084c906115d3565b9150506105ef565b50925050505b92915050565b6000821580610870575060045483115b1561088e57604051630ce3019b60e11b815260040160405180910390fd5b8151602083012060036108a26001866115aa565b815481106108b2576108b26115bd565b90600052602060002090600802016004016040516108d091906115ec565b604051809103902014905092915050565b6108e961114b565b8115806108f7575060045482115b1561091557604051630ce3019b60e11b815260040160405180910390fd5b60036109226001846115aa565b81548110610932576109326115bd565b906000526020600020906008020160405180610100016040529081600082015481526020016001820154815260200160028201805461097090611547565b80601f016020809104026020016040519081016040528092919081815260200182805461099c90611547565b80156109e95780601f106109be576101008083540402835291602001916109e9565b820191906000526020600020905b8154815290600101906020018083116109cc57829003601f168201915b50505050508152602001600382018054610a0290611547565b80601f0160208091040260200160405190810160405280929190818152602001828054610a2e90611547565b8015610a7b5780601f10610a5057610100808354040283529160200191610a7b565b820191906000526020600020905b815481529060010190602001808311610a5e57829003601f168201915b50505050508152602001600482018054610a9490611547565b80601f0160208091040260200160405190810160405280929190818152602001828054610ac090611547565b8015610b0d5780601f10610ae257610100808354040283529160200191610b0d565b820191906000526020600020905b815481529060010190602001808311610af057829003601f168201915b505050918352505060058201546001600160a01b039081166020830152600683015416604082015260079091015460609091015292915050565b60008054604051630842e1d160e31b81523360048201526001600160a01b03909116906342170e8890602401602060405180830381865afa158015610b90573d6000803e3d6000fd5b505050506040513d601f19601f82011682018060405250810190610bb49190611662565b610bd157604051637075232f60e11b815260040160405180910390fd5b600260015403610bf4576040516306fda65d60e31b815260040160405180910390fd5b60026001556000879003610c1b5760405163162908e360e11b815260040160405180910390fd5b8551600003610c3d576040516322133a1d60e11b815260040160405180910390fd5b610c5e86805160209182012060009081526002909152604090205460ff1690565b610c7b576040516331e650b960e11b815260040160405180910390fd5b8451600003610c9d57604051630bd2514f60e11b815260040160405180910390fd5b8351600003610cbf576040516342bba13560e11b815260040160405180910390fd5b610cc884611021565b610ce557604051630c96ccbb60e11b815260040160405180910390fd5b6001600160a01b038316610d0c5760405163e6c4247b60e01b815260040160405180910390fd5b600054604051630842e1d160e31b81526001600160a01b038581166004830152909116906342170e8890602401602060405180830381865afa158015610d56573d6000803e3d6000fd5b505050506040513d601f19601f82011682018060405250810190610d7a9190611662565b610d9757604051637075232f60e11b815260040160405180910390fd5b6001600160a01b038216610dbe57604051632fe5a2f760e11b815260040160405180910390fd5b600054604051630842e1d160e31b81526001600160a01b038481166004830152909116906342170e8890602401602060405180830381865afa158015610e08573d6000803e3d6000fd5b505050506040513d601f19601f82011682018060405250810190610e2c9190611662565b610e4957604051637075232f60e11b815260040160405180910390fd5b60006004546001610e5a9190611597565b6040805161010081018252828152602081018b81529181018a8152606082018a9052608082018990526001600160a01b0380891660a0840152871660c08301524260e083015260038054600181018255600091909152825160089091027fc2575a0e9e593c00f959f8c92f12db2869c3395a3b0502d05e2516446f71f85b810191825593517fc2575a0e9e593c00f959f8c92f12db2869c3395a3b0502d05e2516446f71f85c8501559051939450909290917fc2575a0e9e593c00f959f8c92f12db2869c3395a3b0502d05e2516446f71f85d0190610f3990826116d3565b5060608201516003820190610f4e90826116d3565b5060808201516004820190610f6390826116d3565b5060a0820151600580830180546001600160a01b039384166001600160a01b03199182161790915560c08501516006850180549190941691161790915560e09092015160079091015560048290558054899190600090610fc4908490611597565b92505081905550836001600160a01b031688827f064dc494fe5d493d5bcc1af3a6086392efbf1e41f843585eed725e6a424275bb8a874260405161100a93929190611793565b60405180910390a460018055979650505050505050565b805160009082906040146110385750600092915050565b60005b8151811015611119576000828281518110611058576110586115bd565b01602001516001600160f81b0319169050600360fc1b811080159061108b5750603960f81b6001600160f81b0319821611155b1580156110c15750606160f81b6001600160f81b03198216108015906110bf5750603360f91b6001600160f81b0319821611155b155b80156110f65750604160f81b6001600160f81b03198216108015906110f45750602360f91b6001600160f81b0319821611155b155b1561110657506000949350505050565b5080611111816115d3565b91505061103b565b5060019392505050565b6040518061010001604052806008905b60608152602001906001900390816111335790505090565b604051806101000160405280600081526020016000815260200160608152602001606081526020016060815260200160006001600160a01b0316815260200160006001600160a01b03168152602001600081525090565b6000815180845260005b818110156111c8576020818501810151868301820152016111ac565b506000602082860101526020601f19601f83011685010191505092915050565b600061010082518452602083015160208501526040830151816040860152611212828601826111a2565b9150506060830151848203606086015261122c82826111a2565b9150506080830151848203608086015261124682826111a2565b91505060018060a01b0360a08401511660a085015260c083015161127560c08601826001600160a01b03169052565b5060e083015160e08501528091505092915050565b6000602080830181845280855180835260408601915060408160051b870101925083870160005b828110156112df57603f198886030184526112cd8583516111e8565b945092850192908501906001016112b1565b5092979650505050505050565b6020808252600090610120830183820185845b600881101561132e57601f1987850301835261131c8483516111a2565b935091840191908401906001016112ff565b50919695505050505050565b6000806040838503121561134d57600080fd5b50508035926020909101359150565b634e487b7160e01b600052604160045260246000fd5b600082601f83011261138357600080fd5b813567ffffffffffffffff8082111561139e5761139e61135c565b604051601f8301601f19908116603f011681019082821181831017156113c6576113c661135c565b816040528381528660208588010111156113df57600080fd5b836020870160208301376000602085830101528094505050505092915050565b6000806040838503121561141257600080fd5b82359150602083013567ffffffffffffffff81111561143057600080fd5b61143c85828601611372565b9150509250929050565b60006020828403121561145857600080fd5b5035919050565b60208152600061147260208301846111e8565b9392505050565b80356001600160a01b038116811461149057600080fd5b919050565b60008060008060008060c087890312156114ae57600080fd5b86359550602087013567ffffffffffffffff808211156114cd57600080fd5b6114d98a838b01611372565b965060408901359150808211156114ef57600080fd5b6114fb8a838b01611372565b9550606089013591508082111561151157600080fd5b5061151e89828a01611372565b93505061152d60808801611479565b915061153b60a08801611479565b90509295509295509295565b600181811c9082168061155b57607f821691505b60208210810361157b57634e487b7160e01b600052602260045260246000fd5b50919050565b634e487b7160e01b600052601160045260246000fd5b8082018082111561085a5761085a611581565b8181038181111561085a5761085a611581565b634e487b7160e01b600052603260045260246000fd5b6000600182016115e5576115e5611581565b5060010190565b60008083546115fa81611547565b60018281168015611612576001811461162757611656565b60ff1984168752821515830287019450611656565b8760005260208060002060005b8581101561164d5781548a820152908401908201611634565b50505082870194505b50929695505050505050565b60006020828403121561167457600080fd5b8151801515811461147257600080fd5b601f8211156116ce57600081815260208120601f850160051c810160208610156116ab5750805b601f850160051c820191505b818110156116ca578281556001016116b7565b5050505b505050565b815167ffffffffffffffff8111156116ed576116ed61135c565b611701816116fb8454611547565b84611684565b602080601f831160018114611736576000841561171e5750858301515b600019600386901b1c1916600185901b1785556116ca565b600085815260208120601f198616915b8281101561176557888601518255948401946001909101908401611746565b50858210156117835787850151600019600388901b60f8161c191681555b5050505050600190811b01905550565b6060815260006117a660608301866111a2565b6001600160a01b03949094166020830152506040015291905056fe47656e64657220616e6420446576656c6f706d656e742028474144292046756e644c6f63616c20436f756e63696c20666f72207468652050726f74656374696f6e206f66204368696c6472656e20284c435043292046756e6453656e696f7220436974697a656e73202620506572736f6e732077697468204469736162696c6974792028505744292046756e644d61696e74656e616e636520616e64204f74686572204f7065726174696e6720457870656e73657320284d4f4f4529a2646970667358221220db7211fb877712073837500e08052581a3459cb5bca37ea87f19c1453707bb5c64736f6c6343000813003347656e64657220616e6420446576656c6f706d656e742028474144292046756e644c6f63616c20436f756e63696c20666f72207468652050726f74656374696f6e206f66204368696c6472656e20284c435043292046756e6453656e696f7220436974697a656e73202620506572736f6e732077697468204469736162696c6974792028505744292046756e644d61696e74656e616e636520616e64204f74686572204f7065726174696e6720457870656e73657320284d4f4f4529",
  "immutableReferences": {},
  "source": "// SPDX-License-Identifier: MIT\r\npragma solidity ^0.8.19;\r\n\r\ninterface IBarangayOfficials {\r\n    function isActiveOfficial(address _wallet) external view returns (bool);\r\n}\r\n\r\n// Custom errors for gas optimization\r\nerror InvalidAmount();\r\nerror AllocTypeRequired();\r\nerror InvalidAllocationType();\r\nerror FundTypeRequired();\r\nerror DocumentHashRequired();\r\nerror InvalidDocumentHash();\r\nerror InvalidAddress();\r\nerror NotActiveOfficial();\r\nerror ApprovalRequired();\r\nerror InvalidAllocationID();\r\nerror ReentrantCall();\r\nerror OffsetOutOfBounds();\r\n\r\ncontract AllocationContract {\r\n    IBarangayOfficials public officialsContract;\r\n\r\n    // Reentrancy guard\r\n    uint256 private _status;\r\n    uint256 private constant _NOT_ENTERED = 1;\r\n    uint256 private constant _ENTERED = 2;\r\n\r\n    // Predefined allocation type categories\r\n    mapping(bytes32 => bool) private validAllocationTypes;\r\n\r\n    struct Allocation {\r\n        uint256 id;\r\n        uint256 amount;\r\n        string allocationType;\r\n        string fundType;          // General Fund / Trust Fund\r\n        string documentHash;      // SHA-256 hex string\r\n        address treasurerAddress;\r\n        address chairmanAddress;\r\n        uint256 timestamp;        // block timestamp at record\r\n    }\r\n\r\n    event AllocationRecorded(\r\n        uint256 indexed id,\r\n        uint256 indexed amount,\r\n        string allocationType,\r\n        address indexed treasurerAddress,\r\n        address chairmanAddress,\r\n        uint256 timestamp\r\n    );\r\n\r\n    Allocation[] private allocations;\r\n    uint256 public allocationCount;\r\n    uint256 private totalAllocationAmount;\r\n\r\n    modifier onlyActiveOfficial() {\r\n        if (!officialsContract.isActiveOfficial(msg.sender)) revert NotActiveOfficial();\r\n        _;\r\n    }\r\n\r\n    modifier nonReentrant() {\r\n        if (_status == _ENTERED) revert ReentrantCall();\r\n        _status = _ENTERED;\r\n        _;\r\n        _status = _NOT_ENTERED;\r\n    }\r\n\r\n    constructor(address _officialsContractAddress) {\r\n        if (_officialsContractAddress == address(0)) revert InvalidAddress();\r\n        officialsContract = IBarangayOfficials(_officialsContractAddress);\r\n        _status = _NOT_ENTERED;\r\n\r\n        // Initialize valid allocation types\r\n        validAllocationTypes[keccak256(bytes(\"Barangay Development Fund (BDP)\"))] = true;\r\n        validAllocationTypes[keccak256(bytes(\"Sangguniang Kabataan (SK) Fund\"))] = true;\r\n        validAllocationTypes[keccak256(bytes(\"Calamity Fund (LDRRMF)\"))] = true;\r\n        validAllocationTypes[keccak256(bytes(\"Gender and Development (GAD) Fund\"))] = true;\r\n        validAllocationTypes[keccak256(bytes(\"Senior Citizens & Persons with Disability (PWD) Fund\"))] = true;\r\n        validAllocationTypes[keccak256(bytes(\"Local Council for the Protection of Children (LCPC) Fund\"))] = true;\r\n        validAllocationTypes[keccak256(bytes(\"Personal Services (PS)\"))] = true;\r\n        validAllocationTypes[keccak256(bytes(\"Maintenance and Other Operating Expenses (MOOE)\"))] = true;\r\n    }\r\n\r\n    function isValidDocumentHash(string memory _hash) private pure returns (bool) {\r\n        bytes memory hashBytes = bytes(_hash);\r\n        if (hashBytes.length != 64) return false;\r\n\r\n        for (uint i = 0; i < hashBytes.length; i++) {\r\n            bytes1 char = hashBytes[i];\r\n            if (!(char >= 0x30 && char <= 0x39) && // 0-9\r\n                !(char >= 0x61 && char <= 0x66) && // a-f\r\n                !(char >= 0x41 && char <= 0x46))   // A-F\r\n                return false;\r\n        }\r\n        return true;\r\n    }\r\n\r\n    function isValidAllocationType(string memory _allocationType) private view returns (bool) {\r\n        return validAllocationTypes[keccak256(bytes(_allocationType))];\r\n    }\r\n\r\n    function recordAllocation(\r\n        uint256 _amount,\r\n        string memory _allocationType,\r\n        string memory _fundType,\r\n        string memory _documentHash,\r\n        address _treasurerAddress,\r\n        address _chairmanAddress\r\n    ) public onlyActiveOfficial nonReentrant returns (uint256) {\r\n        if (_amount == 0) revert InvalidAmount();\r\n        if (bytes(_allocationType).length == 0) revert AllocTypeRequired();\r\n        if (!isValidAllocationType(_allocationType)) revert InvalidAllocationType();\r\n        if (bytes(_fundType).length == 0) revert FundTypeRequired();\r\n        if (bytes(_documentHash).length == 0) revert DocumentHashRequired();\r\n        if (!isValidDocumentHash(_documentHash)) revert InvalidDocumentHash();\r\n        if (_treasurerAddress == address(0)) revert InvalidAddress();\r\n        if (!officialsContract.isActiveOfficial(_treasurerAddress)) revert NotActiveOfficial();\r\n        // Approval check: chairman address must be present\r\n        if (_chairmanAddress == address(0)) revert ApprovalRequired();\r\n        if (!officialsContract.isActiveOfficial(_chairmanAddress)) revert NotActiveOfficial();\r\n\r\n        uint256 newId = allocationCount + 1;\r\n        allocations.push(Allocation({\r\n            id: newId,\r\n            amount: _amount,\r\n            allocationType: _allocationType,\r\n            fundType: _fundType,\r\n            documentHash: _documentHash,\r\n            treasurerAddress: _treasurerAddress,\r\n            chairmanAddress: _chairmanAddress,\r\n            timestamp: block.timestamp\r\n        }));\r\n\r\n        allocationCount = newId;\r\n        totalAllocationAmount += _amount;\r\n        emit AllocationRecorded(newId, _amount, _allocationType, _treasurerAddress, _chairmanAddress, block.timestamp);\r\n        return newId;\r\n    }\r\n\r\n    function getTotalAllocationAmount() public view returns (uint256) {\r\n        return totalAllocationAmount;\r\n    }\r\n\r\n    function getAllocation(uint256 _id) public view returns (Allocation memory) {\r\n        if (_id == 0 || _id > allocationCount) revert InvalidAllocationID();\r\n        return allocations[_id - 1];\r\n    }\r\n\r\n    function getAllAllocations() public view returns (Allocation[] memory) {\r\n        return allocations;\r\n    }\r\n\r\n    function getAllocationsPaginated(uint256 _offset, uint256 _limit) public view returns (Allocation[] memory) {\r\n        if (_offset >= allocationCount) revert OffsetOutOfBounds();\r\n\r\n        uint256 end = _offset + _limit;\r\n        if (end > allocationCount) {\r\n            end = allocationCount;\r\n        }\r\n\r\n        uint256 size = end - _offset;\r\n        Allocation[] memory result = new Allocation[](size);\r\n\r\n        for (uint256 i = 0; i < size; i++) {\r\n            result[i] = allocations[_offset + i];\r\n        }\r\n\r\n        return result;\r\n    }\r\n\r\n    function verifyAllocationDocument(uint256 _id, string memory _documentHash) public view returns (bool) {\r\n        if (_id == 0 || _id > allocationCount) revert InvalidAllocationID();\r\n        return keccak256(bytes(allocations[_id - 1].documentHash)) == keccak256(bytes(_documentHash));\r\n    }\r\n\r\n    function getValidAllocationTypes() public pure returns (string[8] memory) {\r\n        return [\r\n            \"Barangay Development Fund (BDP)\",\r\n            \"Sangguniang Kabataan (SK) Fund\",\r\n            \"Calamity Fund (LDRRMF)\",\r\n            \"Gender and Development (GAD) Fund\",\r\n            \"Senior Citizens & Persons with Disability (PWD) Fund\",\r\n            \"Local Council for the Protection of Children (LCPC) Fund\",\r\n            \"Personal Services (PS)\",\r\n            \"Maintenance and Other Operating Expenses (MOOE)\"\r\n        ];\r\n    }\r\n}\r\n",
  "sourcePath": "D:\\Documents\\4Bs\\blockchain\\contracts\\AllocationContract.sol",
  "compiler": {
    "name": "solc",
    "version": "0.8.19+commit.7dd6d404.Emscripten.clang"
  },
  "schemaVersion": "3.4.16",
  "updatedAt": "2025-11-14T22:31:43.915Z",
  "networkType": "ethereum",
  "devdoc": {
    "kind": "dev",
    "methods": {},
    "version": 1
  },
  "userdoc": {
    "kind": "user",
    "methods": {},
    "version": 1
  }
}