{
  "contractName": "BarangayOfficials",
  "abi": [
    {
      "inputs": [],
      "stateMutability": "nonpayable",
      "type": "constructor"
    },
    {
      "anonymous": false,
      "inputs": [
        {
          "indexed": true,
          "internalType": "address",
          "name": "wallet",
          "type": "address"
        },
        {
          "indexed": false,
          "internalType": "string",
          "name": "reason",
          "type": "string"
        }
      ],
      "name": "OfficialDeactivated",
      "type": "event"
    },
    {
      "anonymous": false,
      "inputs": [
        {
          "indexed": true,
          "internalType": "address",
          "name": "wallet",
          "type": "address"
        },
        {
          "indexed": true,
          "internalType": "string",
          "name": "role",
          "type": "string"
        },
        {
          "indexed": false,
          "internalType": "uint256",
          "name": "termStart",
          "type": "uint256"
        },
        {
          "indexed": false,
          "internalType": "uint256",
          "name": "termEnd",
          "type": "uint256"
        }
      ],
      "name": "OfficialRegistered",
      "type": "event"
    },
    {
      "inputs": [
        {
          "internalType": "address",
          "name": "",
          "type": "address"
        }
      ],
      "name": "officials",
      "outputs": [
        {
          "internalType": "string",
          "name": "name",
          "type": "string"
        },
        {
          "internalType": "string",
          "name": "email",
          "type": "string"
        },
        {
          "internalType": "string",
          "name": "role",
          "type": "string"
        },
        {
          "internalType": "address",
          "name": "wallet",
          "type": "address"
        },
        {
          "internalType": "uint256",
          "name": "termStart",
          "type": "uint256"
        },
        {
          "internalType": "uint256",
          "name": "termEnd",
          "type": "uint256"
        },
        {
          "internalType": "bool",
          "name": "isActive",
          "type": "bool"
        }
      ],
      "stateMutability": "view",
      "type": "function",
      "constant": true
    },
    {
      "inputs": [],
      "name": "systemAdmin",
      "outputs": [
        {
          "internalType": "address",
          "name": "",
          "type": "address"
        }
      ],
      "stateMutability": "view",
      "type": "function",
      "constant": true
    },
    {
      "inputs": [
        {
          "internalType": "address",
          "name": "_wallet",
          "type": "address"
        },
        {
          "internalType": "string",
          "name": "_name",
          "type": "string"
        },
        {
          "internalType": "string",
          "name": "_email",
          "type": "string"
        },
        {
          "internalType": "string",
          "name": "_role",
          "type": "string"
        },
        {
          "internalType": "uint256",
          "name": "_termStart",
          "type": "uint256"
        },
        {
          "internalType": "uint256",
          "name": "_termEnd",
          "type": "uint256"
        }
      ],
      "name": "registerOfficial",
      "outputs": [],
      "stateMutability": "nonpayable",
      "type": "function"
    },
    {
      "inputs": [
        {
          "internalType": "address",
          "name": "_wallet",
          "type": "address"
        },
        {
          "internalType": "string",
          "name": "_reason",
          "type": "string"
        }
      ],
      "name": "deactivateOfficial",
      "outputs": [],
      "stateMutability": "nonpayable",
      "type": "function"
    },
    {
      "inputs": [
        {
          "internalType": "address",
          "name": "_wallet",
          "type": "address"
        }
      ],
      "name": "isActiveOfficial",
      "outputs": [
        {
          "internalType": "bool",
          "name": "",
          "type": "bool"
        }
      ],
      "stateMutability": "view",
      "type": "function",
      "constant": true
    },
    {
      "inputs": [],
      "name": "getActiveOfficials",
      "outputs": [
        {
          "components": [
            {
              "internalType": "string",
              "name": "name",
              "type": "string"
            },
            {
              "internalType": "string",
              "name": "email",
              "type": "string"
            },
            {
              "internalType": "string",
              "name": "role",
              "type": "string"
            },
            {
              "internalType": "address",
              "name": "wallet",
              "type": "address"
            },
            {
              "internalType": "uint256",
              "name": "termStart",
              "type": "uint256"
            },
            {
              "internalType": "uint256",
              "name": "termEnd",
              "type": "uint256"
            },
            {
              "internalType": "bool",
              "name": "isActive",
              "type": "bool"
            }
          ],
          "internalType": "struct BarangayOfficials.Official[]",
          "name": "",
          "type": "tuple[]"
        }
      ],
      "stateMutability": "view",
      "type": "function",
      "constant": true
    },
    {
      "inputs": [
        {
          "internalType": "address",
          "name": "_wallet",
          "type": "address"
        }
      ],
      "name": "getOfficial",
      "outputs": [
        {
          "components": [
            {
              "internalType": "string",
              "name": "name",
              "type": "string"
            },
            {
              "internalType": "string",
              "name": "email",
              "type": "string"
            },
            {
              "internalType": "string",
              "name": "role",
              "type": "string"
            },
            {
              "internalType": "address",
              "name": "wallet",
              "type": "address"
            },
            {
              "internalType": "uint256",
              "name": "termStart",
              "type": "uint256"
            },
            {
              "internalType": "uint256",
              "name": "termEnd",
              "type": "uint256"
            },
            {
              "internalType": "bool",
              "name": "isActive",
              "type": "bool"
            }
          ],
          "internalType": "struct BarangayOfficials.Official",
          "name": "",
          "type": "tuple"
        }
      ],
      "stateMutability": "view",
      "type": "function",
      "constant": true
    }
  ],
  "bytecode": "0x608060405234801561001057600080fd5b50600280546001600160a01b031916331790556113b6806100326000396000f3fe608060405234801561001057600080fd5b506004361061007d5760003560e01c8063d44b9d9d1161005b578063d44b9d9d14610106578063d92ac8e51461011b578063d93321ef1461012e578063fcf8b6ef1461015457600080fd5b806342170e88146100825780635986391a146100c6578063a239e33d146100db575b600080fd5b6100b1610090366004610e13565b6001600160a01b031660009081526020819052604090206006015460ff1690565b60405190151581526020015b60405180910390f35b6100d96100d4366004610ed8565b610174565b005b6002546100ee906001600160a01b031681565b6040516001600160a01b0390911681526020016100bd565b61010e610463565b6040516100bd919061105a565b6100d96101293660046110bc565b610800565b61014161013c366004610e13565b610953565b6040516100bd979695949392919061110a565b610167610162366004610e13565b610b33565b6040516100bd9190611175565b6002546001600160a01b031633146101a75760405162461bcd60e51b815260040161019e90611188565b60405180910390fd5b6001600160a01b0386166101f65760405162461bcd60e51b8152602060048201526016602482015275496e76616c69642077616c6c6574206164647265737360501b604482015260640161019e565b60008551116102375760405162461bcd60e51b815260206004820152600d60248201526c13985b59481c995c5d5a5c9959609a1b604482015260640161019e565b60008451116102795760405162461bcd60e51b815260206004820152600e60248201526d115b585a5b081c995c5d5a5c995960921b604482015260640161019e565b60008351116102ba5760405162461bcd60e51b815260206004820152600d60248201526c149bdb19481c995c5d5a5c9959609a1b604482015260640161019e565b6001600160a01b0386811660009081526020819052604090206003015416610327576001805480820182556000919091527fb10e2d527612073b26eecdfd717e6a320cf44b4afac2b0732d9fcbe2b7fa0cf60180546001600160a01b0319166001600160a01b0388161790555b6040805160e08101825286815260208082018790528183018690526001600160a01b038916606083018190526080830186905260a08301859052600160c084015260009081529081905291909120815181906103839082611254565b50602082015160018201906103989082611254565b50604082015160028201906103ad9082611254565b5060608201516003820180546001600160a01b0319166001600160a01b039092169190911790556080820151600482015560a0820151600582015560c0909101516006909101805460ff1916911515919091179055604051610410908490611314565b6040805191829003822084835260208301849052916001600160a01b038916917f05de959dad3c4eaf13e1284bd6b571785c8b30c77cf0ba09bc0bf94e5c4c3f8c910160405180910390a3505050505050565b60606000805b6001548110156104d9576000806001838154811061048957610489611330565b60009182526020808320909101546001600160a01b0316835282019290925260400190206006015460ff16156104c757816104c381611346565b9250505b806104d181611346565b915050610469565b5060008167ffffffffffffffff8111156104f5576104f5610e35565b60405190808252806020026020018201604052801561052e57816020015b61051b610daf565b8152602001906001900390816105135790505b5090506000805b6001548110156107f7576000806001838154811061055557610555611330565b60009182526020808320909101546001600160a01b0316835282019290925260400190206006015460ff16156107e5576000806001838154811061059b5761059b611330565b60009182526020808320909101546001600160a01b031683528201929092526040908101909120815160e081019092528054829082906105da906111cb565b80601f0160208091040260200160405190810160405280929190818152602001828054610606906111cb565b80156106535780601f1061062857610100808354040283529160200191610653565b820191906000526020600020905b81548152906001019060200180831161063657829003601f168201915b5050505050815260200160018201805461066c906111cb565b80601f0160208091040260200160405190810160405280929190818152602001828054610698906111cb565b80156106e55780601f106106ba576101008083540402835291602001916106e5565b820191906000526020600020905b8154815290600101906020018083116106c857829003601f168201915b505050505081526020016002820180546106fe906111cb565b80601f016020809104026020016040519081016040528092919081815260200182805461072a906111cb565b80156107775780601f1061074c57610100808354040283529160200191610777565b820191906000526020600020905b81548152906001019060200180831161075a57829003601f168201915b505050918352505060038201546001600160a01b03166020820152600482015460408201526005820154606082015260069091015460ff16151560809091015283518490849081106107cb576107cb611330565b602002602001018190525081806107e190611346565b9250505b806107ef81611346565b915050610535565b50909392505050565b6002546001600160a01b0316331461082a5760405162461bcd60e51b815260040161019e90611188565b6001600160a01b03828116600090815260208190526040902060030154166108895760405162461bcd60e51b815260206004820152601260248201527113d9999a58da585b081b9bdd08199bdd5b9960721b604482015260640161019e565b6001600160a01b03821660009081526020819052604090206006015460ff166108f45760405162461bcd60e51b815260206004820152601960248201527f4f6666696369616c20616c726561647920696e61637469766500000000000000604482015260640161019e565b6001600160a01b03821660008181526020819052604090819020600601805460ff19169055517f762173f02e086ed42189049dce747304debd243a25997b298e20786cd06756009061094790849061136d565b60405180910390a25050565b60006020819052908152604090208054819061096e906111cb565b80601f016020809104026020016040519081016040528092919081815260200182805461099a906111cb565b80156109e75780601f106109bc576101008083540402835291602001916109e7565b820191906000526020600020905b8154815290600101906020018083116109ca57829003601f168201915b5050505050908060010180546109fc906111cb565b80601f0160208091040260200160405190810160405280929190818152602001828054610a28906111cb565b8015610a755780601f10610a4a57610100808354040283529160200191610a75565b820191906000526020600020905b815481529060010190602001808311610a5857829003601f168201915b505050505090806002018054610a8a906111cb565b80601f0160208091040260200160405190810160405280929190818152602001828054610ab6906111cb565b8015610b035780601f10610ad857610100808354040283529160200191610b03565b820191906000526020600020905b815481529060010190602001808311610ae657829003601f168201915b5050505060038301546004840154600585015460069095015493946001600160a01b039092169390925060ff1687565b610b3b610daf565b6001600160a01b0382811660009081526020819052604090206003015416610b9a5760405162461bcd60e51b815260206004820152601260248201527113d9999a58da585b081b9bdd08199bdd5b9960721b604482015260640161019e565b6001600160a01b03821660009081526020819052604090819020815160e08101909252805482908290610bcc906111cb565b80601f0160208091040260200160405190810160405280929190818152602001828054610bf8906111cb565b8015610c455780601f10610c1a57610100808354040283529160200191610c45565b820191906000526020600020905b815481529060010190602001808311610c2857829003601f168201915b50505050508152602001600182018054610c5e906111cb565b80601f0160208091040260200160405190810160405280929190818152602001828054610c8a906111cb565b8015610cd75780601f10610cac57610100808354040283529160200191610cd7565b820191906000526020600020905b815481529060010190602001808311610cba57829003601f168201915b50505050508152602001600282018054610cf0906111cb565b80601f0160208091040260200160405190810160405280929190818152602001828054610d1c906111cb565b8015610d695780601f10610d3e57610100808354040283529160200191610d69565b820191906000526020600020905b815481529060010190602001808311610d4c57829003601f168201915b505050918352505060038201546001600160a01b03166020820152600482015460408201526005820154606082015260069091015460ff16151560809091015292915050565b6040518060e0016040528060608152602001606081526020016060815260200160006001600160a01b0316815260200160008152602001600081526020016000151581525090565b80356001600160a01b0381168114610e0e57600080fd5b919050565b600060208284031215610e2557600080fd5b610e2e82610df7565b9392505050565b634e487b7160e01b600052604160045260246000fd5b600082601f830112610e5c57600080fd5b813567ffffffffffffffff80821115610e7757610e77610e35565b604051601f8301601f19908116603f01168101908282118183101715610e9f57610e9f610e35565b81604052838152866020858801011115610eb857600080fd5b836020870160208301376000602085830101528094505050505092915050565b60008060008060008060c08789031215610ef157600080fd5b610efa87610df7565b9550602087013567ffffffffffffffff80821115610f1757600080fd5b610f238a838b01610e4b565b96506040890135915080821115610f3957600080fd5b610f458a838b01610e4b565b95506060890135915080821115610f5b57600080fd5b50610f6889828a01610e4b565b9350506080870135915060a087013590509295509295509295565b60005b83811015610f9e578181015183820152602001610f86565b50506000910152565b60008151808452610fbf816020860160208601610f83565b601f01601f19169290920160200192915050565b6000815160e08452610fe860e0850182610fa7565b9050602083015184820360208601526110018282610fa7565b9150506040830151848203604086015261101b8282610fa7565b6060858101516001600160a01b0316908701526080808601519087015260a0858101519087015260c09485015115159490950193909352509192915050565b6000602080830181845280855180835260408601915060408160051b870101925083870160005b828110156110af57603f1988860301845261109d858351610fd3565b94509285019290850190600101611081565b5092979650505050505050565b600080604083850312156110cf57600080fd5b6110d883610df7565b9150602083013567ffffffffffffffff8111156110f457600080fd5b61110085828601610e4b565b9150509250929050565b60e08152600061111d60e083018a610fa7565b828103602084015261112f818a610fa7565b905082810360408401526111438189610fa7565b6001600160a01b039790971660608401525050608081019390935260a0830191909152151560c0909101529392505050565b602081526000610e2e6020830184610fd3565b60208082526023908201527f4f6e6c792073797374656d2063616e20706572666f726d20746869732061637460408201526234b7b760e91b606082015260800190565b600181811c908216806111df57607f821691505b6020821081036111ff57634e487b7160e01b600052602260045260246000fd5b50919050565b601f82111561124f57600081815260208120601f850160051c8101602086101561122c5750805b601f850160051c820191505b8181101561124b57828155600101611238565b5050505b505050565b815167ffffffffffffffff81111561126e5761126e610e35565b6112828161127c84546111cb565b84611205565b602080601f8311600181146112b7576000841561129f5750858301515b600019600386901b1c1916600185901b17855561124b565b600085815260208120601f198616915b828110156112e6578886015182559484019460019091019084016112c7565b50858210156113045787850151600019600388901b60f8161c191681555b5050505050600190811b01905550565b60008251611326818460208701610f83565b9190910192915050565b634e487b7160e01b600052603260045260246000fd5b60006001820161136657634e487b7160e01b600052601160045260246000fd5b5060010190565b602081526000610e2e6020830184610fa756fea2646970667358221220764951d92fa79a977f559053e486548b553c739552bcf68da53370f744f11a2e64736f6c63430008130033",
  "immutableReferences": {},
  "source": "// SPDX-License-Identifier: MIT\npragma solidity ^0.8.19;\n\ncontract BarangayOfficials {\n    struct Official {\n        string name;\n        string email;\n        string role;\n        address wallet;\n        uint256 termStart;\n        uint256 termEnd;\n        bool isActive;\n    }\n\n    mapping(address => Official) public officials;\n    address[] private officialAddresses;\n    address public systemAdmin;\n\n    event OfficialRegistered(address indexed wallet, string indexed role, uint256 termStart, uint256 termEnd);\n    event OfficialDeactivated(address indexed wallet, string reason);\n\n    modifier onlySystem() {\n        require(msg.sender == systemAdmin, \"Only system can perform this action\");\n        _;\n    }\n\n    modifier onlyActiveOfficial() {\n        require(officials[msg.sender].isActive, \"Only active officials can perform this action\");\n        _;\n    }\n\n    constructor() {\n        systemAdmin = msg.sender;\n    }\n\n    function registerOfficial(\n        address _wallet,\n        string memory _name,\n        string memory _email,\n        string memory _role,\n        uint256 _termStart,\n        uint256 _termEnd\n    ) public onlySystem {\n        require(_wallet != address(0), \"Invalid wallet address\");\n        require(bytes(_name).length > 0, \"Name required\");\n        require(bytes(_email).length > 0, \"Email required\");\n        require(bytes(_role).length > 0, \"Role required\");\n\n        // If not already registered, add to addresses array\n        if (officials[_wallet].wallet == address(0)) {\n            officialAddresses.push(_wallet);\n        }\n\n        officials[_wallet] = Official(_name, _email, _role, _wallet, _termStart, _termEnd, true);\n        emit OfficialRegistered(_wallet, _role, _termStart, _termEnd);\n    }\n\n    function deactivateOfficial(address _wallet, string memory _reason) public onlySystem {\n        require(officials[_wallet].wallet != address(0), \"Official not found\");\n        require(officials[_wallet].isActive, \"Official already inactive\");\n        officials[_wallet].isActive = false;\n        emit OfficialDeactivated(_wallet, _reason);\n    }\n\n    function isActiveOfficial(address _wallet) public view returns (bool) {\n        return officials[_wallet].isActive;\n    }\n\n    function getActiveOfficials() public view returns (Official[] memory) {\n        uint256 activeCount = 0;\n\n        // Count active officials\n        for (uint256 i = 0; i < officialAddresses.length; i++) {\n            if (officials[officialAddresses[i]].isActive) {\n                activeCount++;\n            }\n        }\n\n        // Build array of active officials\n        Official[] memory activeOfficials = new Official[](activeCount);\n        uint256 index = 0;\n        for (uint256 i = 0; i < officialAddresses.length; i++) {\n            if (officials[officialAddresses[i]].isActive) {\n                activeOfficials[index] = officials[officialAddresses[i]];\n                index++;\n            }\n        }\n\n        return activeOfficials;\n    }\n\n    function getOfficial(address _wallet) public view returns (Official memory) {\n        require(officials[_wallet].wallet != address(0), \"Official not found\");\n        return officials[_wallet];\n    }\n}\n",
  "sourcePath": "D:\\Documents\\4Bs\\blockchain\\contracts\\BarangayOfficials.sol",
  "compiler": {
    "name": "solc",
    "version": "0.8.19+commit.7dd6d404.Emscripten.clang"
  },
  "schemaVersion": "3.4.16",
  "updatedAt": "2025-11-14T22:31:43.896Z",
  "networkType": "ethereum",
  "devdoc": {
    "kind": "dev",
    "methods": {},
    "version": 1
  },
  "userdoc": {
    "kind": "user",
    "methods": {},
    "version": 1
  }
}