{
  "contractName": "ExpenditureContract",
  "abi": [
    {
      "inputs": [
        {
          "internalType": "address",
          "name": "_officialsContractAddress",
          "type": "address"
        }
      ],
      "stateMutability": "nonpayable",
      "type": "constructor"
    },
    {
      "inputs": [],
      "name": "InvalidFundSource",
      "type": "error"
    },
    {
      "anonymous": false,
      "inputs": [
        {
          "indexed": true,
          "internalType": "uint256",
          "name": "id",
          "type": "uint256"
        },
        {
          "indexed": true,
          "internalType": "uint256",
          "name": "amount",
          "type": "uint256"
        },
        {
          "indexed": false,
          "internalType": "string",
          "name": "purpose",
          "type": "string"
        },
        {
          "indexed": false,
          "internalType": "string",
          "name": "fundSource",
          "type": "string"
        },
        {
          "indexed": true,
          "internalType": "uint256",
          "name": "proposalId",
          "type": "uint256"
        },
        {
          "indexed": false,
          "internalType": "address",
          "name": "treasurerAddress",
          "type": "address"
        },
        {
          "indexed": false,
          "internalType": "address",
          "name": "chairmanAddress",
          "type": "address"
        },
        {
          "indexed": false,
          "internalType": "uint256",
          "name": "timestamp",
          "type": "uint256"
        }
      ],
      "name": "ExpenditureRecorded",
      "type": "event"
    },
    {
      "inputs": [],
      "name": "expenditureCount",
      "outputs": [
        {
          "internalType": "uint256",
          "name": "",
          "type": "uint256"
        }
      ],
      "stateMutability": "view",
      "type": "function",
      "constant": true
    },
    {
      "inputs": [],
      "name": "officialsContract",
      "outputs": [
        {
          "internalType": "contract IBarangayOfficials",
          "name": "",
          "type": "address"
        }
      ],
      "stateMutability": "view",
      "type": "function",
      "constant": true
    },
    {
      "inputs": [
        {
          "internalType": "uint256",
          "name": "_amount",
          "type": "uint256"
        },
        {
          "internalType": "string",
          "name": "_purpose",
          "type": "string"
        },
        {
          "internalType": "string",
          "name": "_fundSource",
          "type": "string"
        },
        {
          "internalType": "string",
          "name": "_documentHash",
          "type": "string"
        },
        {
          "internalType": "uint256",
          "name": "_proposalId",
          "type": "uint256"
        },
        {
          "internalType": "address",
          "name": "_treasurerAddress",
          "type": "address"
        },
        {
          "internalType": "address",
          "name": "_chairmanAddress",
          "type": "address"
        }
      ],
      "name": "recordExpenditure",
      "outputs": [
        {
          "internalType": "uint256",
          "name": "",
          "type": "uint256"
        }
      ],
      "stateMutability": "nonpayable",
      "type": "function"
    },
    {
      "inputs": [
        {
          "internalType": "uint256",
          "name": "_id",
          "type": "uint256"
        }
      ],
      "name": "getExpenditure",
      "outputs": [
        {
          "components": [
            {
              "internalType": "uint256",
              "name": "id",
              "type": "uint256"
            },
            {
              "internalType": "uint256",
              "name": "amount",
              "type": "uint256"
            },
            {
              "internalType": "string",
              "name": "purpose",
              "type": "string"
            },
            {
              "internalType": "string",
              "name": "fundSource",
              "type": "string"
            },
            {
              "internalType": "string",
              "name": "documentHash",
              "type": "string"
            },
            {
              "internalType": "uint256",
              "name": "proposalId",
              "type": "uint256"
            },
            {
              "internalType": "address",
              "name": "treasurerAddress",
              "type": "address"
            },
            {
              "internalType": "address",
              "name": "chairmanAddress",
              "type": "address"
            },
            {
              "internalType": "uint256",
              "name": "timestamp",
              "type": "uint256"
            }
          ],
          "internalType": "struct ExpenditureContract.Expenditure",
          "name": "",
          "type": "tuple"
        }
      ],
      "stateMutability": "view",
      "type": "function",
      "constant": true
    },
    {
      "inputs": [],
      "name": "getAllExpenditures",
      "outputs": [
        {
          "components": [
            {
              "internalType": "uint256",
              "name": "id",
              "type": "uint256"
            },
            {
              "internalType": "uint256",
              "name": "amount",
              "type": "uint256"
            },
            {
              "internalType": "string",
              "name": "purpose",
              "type": "string"
            },
            {
              "internalType": "string",
              "name": "fundSource",
              "type": "string"
            },
            {
              "internalType": "string",
              "name": "documentHash",
              "type": "string"
            },
            {
              "internalType": "uint256",
              "name": "proposalId",
              "type": "uint256"
            },
            {
              "internalType": "address",
              "name": "treasurerAddress",
              "type": "address"
            },
            {
              "internalType": "address",
              "name": "chairmanAddress",
              "type": "address"
            },
            {
              "internalType": "uint256",
              "name": "timestamp",
              "type": "uint256"
            }
          ],
          "internalType": "struct ExpenditureContract.Expenditure[]",
          "name": "",
          "type": "tuple[]"
        }
      ],
      "stateMutability": "view",
      "type": "function",
      "constant": true
    },
    {
      "inputs": [
        {
          "internalType": "uint256",
          "name": "_offset",
          "type": "uint256"
        },
        {
          "internalType": "uint256",
          "name": "_limit",
          "type": "uint256"
        }
      ],
      "name": "getExpendituresPaginated",
      "outputs": [
        {
          "components": [
            {
              "internalType": "uint256",
              "name": "id",
              "type": "uint256"
            },
            {
              "internalType": "uint256",
              "name": "amount",
              "type": "uint256"
            },
            {
              "internalType": "string",
              "name": "purpose",
              "type": "string"
            },
            {
              "internalType": "string",
              "name": "fundSource",
              "type": "string"
            },
            {
              "internalType": "string",
              "name": "documentHash",
              "type": "string"
            },
            {
              "internalType": "uint256",
              "name": "proposalId",
              "type": "uint256"
            },
            {
              "internalType": "address",
              "name": "treasurerAddress",
              "type": "address"
            },
            {
              "internalType": "address",
              "name": "chairmanAddress",
              "type": "address"
            },
            {
              "internalType": "uint256",
              "name": "timestamp",
              "type": "uint256"
            }
          ],
          "internalType": "struct ExpenditureContract.Expenditure[]",
          "name": "",
          "type": "tuple[]"
        }
      ],
      "stateMutability": "view",
      "type": "function",
      "constant": true
    },
    {
      "inputs": [],
      "name": "getTotalExpenditures",
      "outputs": [
        {
          "internalType": "uint256",
          "name": "",
          "type": "uint256"
        }
      ],
      "stateMutability": "view",
      "type": "function",
      "constant": true
    },
    {
      "inputs": [
        {
          "internalType": "uint256",
          "name": "_proposalId",
          "type": "uint256"
        }
      ],
      "name": "getExpendituresByProposal",
      "outputs": [
        {
          "components": [
            {
              "internalType": "uint256",
              "name": "id",
              "type": "uint256"
            },
            {
              "internalType": "uint256",
              "name": "amount",
              "type": "uint256"
            },
            {
              "internalType": "string",
              "name": "purpose",
              "type": "string"
            },
            {
              "internalType": "string",
              "name": "fundSource",
              "type": "string"
            },
            {
              "internalType": "string",
              "name": "documentHash",
              "type": "string"
            },
            {
              "internalType": "uint256",
              "name": "proposalId",
              "type": "uint256"
            },
            {
              "internalType": "address",
              "name": "treasurerAddress",
              "type": "address"
            },
            {
              "internalType": "address",
              "name": "chairmanAddress",
              "type": "address"
            },
            {
              "internalType": "uint256",
              "name": "timestamp",
              "type": "uint256"
            }
          ],
          "internalType": "struct ExpenditureContract.Expenditure[]",
          "name": "",
          "type": "tuple[]"
        }
      ],
      "stateMutability": "view",
      "type": "function",
      "constant": true
    },
    {
      "inputs": [
        {
          "internalType": "uint256",
          "name": "_id",
          "type": "uint256"
        },
        {
          "internalType": "string",
          "name": "_documentHash",
          "type": "string"
        }
      ],
      "name": "verifyExpenditureDocument",
      "outputs": [
        {
          "internalType": "bool",
          "name": "",
          "type": "bool"
        }
      ],
      "stateMutability": "view",
      "type": "function",
      "constant": true
    },
    {
      "inputs": [],
      "name": "getValidFundSources",
      "outputs": [
        {
          "internalType": "string[8]",
          "name": "",
          "type": "string[8]"
        }
      ],
      "stateMutability": "pure",
      "type": "function",
      "constant": true
    }
  ],
  "bytecode": "0x60806040523480156200001157600080fd5b50604051620023ed380380620023ed8339810160408190526200003491620003a3565b6001600160a01b0381166200009a5760405162461bcd60e51b815260206004820152602260248201527f496e76616c6964206f6666696369616c7320636f6e7472616374206164647265604482015261737360f01b606482015260840160405180910390fd5b600080546001600160a01b0319166001600160a01b0383161781556001808055604080518082018252601f81527f426172616e67617920446576656c6f706d656e742046756e64202842445029006020918201527f312fcf26d2cc4b29d0c62db1f8bf5bd2b3e8bcace2971500d3b8454830604de0805460ff19908116851790915582518084018452601e81527f53616e6767756e69616e67204b6162617461616e2028534b292046756e640000908301527f7c1e8a3b5ace1b40747900349e98dc84278cad7f378984b088ef11707a0360ba805482168517905582518084018452601681527f43616c616d6974792046756e6420284c4452524d462900000000000000000000908301527ffe1322148b91c082f6819d37d7d7197237490edf935658d44eafa239417ae9db855260028083527f22bf7e2f036ea46990aa6b8786fb0417d14a05106c9d0d90e1a7446ee26223d680549092168517909155825160608101909352602180845293949093909291620023319083013980519060200120815260200190815260200160002060006101000a81548160ff0219169083151502179055506001600260006040518060600160405280603481526020016200238a6034913980519060200120815260200190815260200160002060006101000a81548160ff0219169083151502179055506001600260006040518060600160405280603881526020016200235260389139805160209182012082528181019290925260409081016000908120805494151560ff1995861617905581518083018352601681527f506572736f6e616c205365727669636573202850532900000000000000000000908401527faa0dffe69a959afa6eead12628b82bb9a081ebb08074dd892446daa64abaeb8e815260028084527fe1cd3d861f2ede1682cc59b4c3733dd31b4d330104cbc8e1420369449f058e5b80549095166001908117909555825160608101909352602f8084529093919291620023be9083013980516020918201208252810191909152604001600020805460ff191691151591909117905550620003d5565b600060208284031215620003b657600080fd5b81516001600160a01b0381168114620003ce57600080fd5b9392505050565b611f4c80620003e56000396000f3fe608060405234801561001057600080fd5b506004361061009e5760003560e01c8063c31f56c811610066578063c31f56c814610112578063c8c3f4ae14610127578063d4622ae11461013a578063e96aad8614610165578063ef6fbe6e1461018557600080fd5b80632716fbb3146100a357806330daa3a2146100cb578063404268ec146100e25780635f124a2f146100f7578063a1276e59146100ff575b600080fd5b6100b66100b13660046118a4565b610198565b60405190151581526020015b60405180910390f35b6100d460045481565b6040519081526020016100c2565b6100ea610249565b6040516100c291906119e6565b6005546100d4565b6100ea61010d366004611a48565b6104ad565b61011a61080f565b6040516100c29190611a61565b6100d4610135366004611acb565b61097b565b60005461014d906001600160a01b031681565b6040516001600160a01b0390911681526020016100c2565b610178610173366004611a48565b611096565b6040516100c29190611b88565b6100ea610193366004611ba2565b611331565b600080831180156101ab57506004548311155b6101f55760405162461bcd60e51b8152602060048201526016602482015275125b9d985b1a5908195e1c195b991a5d1d5c9948125160521b60448201526064015b60405180910390fd5b815160208301206003610209600186611bda565b8154811061021957610219611bed565b90600052602060002090600902016004016040516102379190611c3d565b60405180910390201490505b92915050565b60606003805480602002602001604051908101604052809291908181526020016000905b828210156104a457838290600052602060002090600902016040518061012001604052908160008201548152602001600182015481526020016002820180546102b590611c03565b80601f01602080910402602001604051908101604052809291908181526020018280546102e190611c03565b801561032e5780601f106103035761010080835404028352916020019161032e565b820191906000526020600020905b81548152906001019060200180831161031157829003601f168201915b5050505050815260200160038201805461034790611c03565b80601f016020809104026020016040519081016040528092919081815260200182805461037390611c03565b80156103c05780601f10610395576101008083540402835291602001916103c0565b820191906000526020600020905b8154815290600101906020018083116103a357829003601f168201915b505050505081526020016004820180546103d990611c03565b80601f016020809104026020016040519081016040528092919081815260200182805461040590611c03565b80156104525780601f1061042757610100808354040283529160200191610452565b820191906000526020600020905b81548152906001019060200180831161043557829003601f168201915b5050509183525050600582015460208083019190915260068301546001600160a01b0390811660408401526007840154166060830152600890920154608090910152908252600192909201910161026d565b50505050905090565b60606000805b6003548110156105085783600382815481106104d1576104d1611bed565b906000526020600020906009020160050154036104f657816104f281611cb3565b9250505b8061050081611cb3565b9150506104b3565b5060008167ffffffffffffffff81111561052457610524611801565b60405190808252806020026020018201604052801561055d57816020015b61054a61177b565b8152602001906001900390816105425790505b5090506000805b60035481101561080557856003828154811061058257610582611bed565b906000526020600020906009020160050154036107f357600381815481106105ac576105ac611bed565b90600052602060002090600902016040518061012001604052908160008201548152602001600182015481526020016002820180546105ea90611c03565b80601f016020809104026020016040519081016040528092919081815260200182805461061690611c03565b80156106635780601f1061063857610100808354040283529160200191610663565b820191906000526020600020905b81548152906001019060200180831161064657829003601f168201915b5050505050815260200160038201805461067c90611c03565b80601f01602080910402602001604051908101604052809291908181526020018280546106a890611c03565b80156106f55780601f106106ca576101008083540402835291602001916106f5565b820191906000526020600020905b8154815290600101906020018083116106d857829003601f168201915b5050505050815260200160048201805461070e90611c03565b80601f016020809104026020016040519081016040528092919081815260200182805461073a90611c03565b80156107875780601f1061075c57610100808354040283529160200191610787565b820191906000526020600020905b81548152906001019060200180831161076a57829003601f168201915b50505091835250506005820154602082015260068201546001600160a01b039081166040830152600783015416606082015260089091015460809091015283518490849081106107d9576107d9611bed565b602002602001018190525081806107ef90611cb3565b9250505b806107fd81611cb3565b915050610564565b5090949350505050565b6108176117d9565b6040518061010001604052806040518060400160405280601f81526020017f426172616e67617920446576656c6f706d656e742046756e642028424450290081525081526020016040518060400160405280601e81526020017f53616e6767756e69616e67204b6162617461616e2028534b292046756e64000081525081526020016040518060400160405280601681526020017543616c616d6974792046756e6420284c4452524d462960501b8152508152602001604051806060016040528060218152602001611e5b602191398152602001604051806060016040528060348152602001611eb4603491398152602001604051806060016040528060388152602001611e7c60389139815260200160405180604001604052806016815260200175506572736f6e616c205365727669636573202850532960501b81525081526020016040518060600160405280602f8152602001611ee8602f91399052919050565b60008054604051630842e1d160e31b81523360048201526001600160a01b03909116906342170e8890602401602060405180830381865afa1580156109c4573d6000803e3d6000fd5b505050506040513d601f19601f820116820180604052508101906109e89190611ccc565b610a4a5760405162461bcd60e51b815260206004820152602d60248201527f4f6e6c7920616374697665206f6666696369616c732063616e20706572666f7260448201526c36903a3434b99030b1ba34b7b760991b60648201526084016101ec565b600260015403610a9c5760405162461bcd60e51b815260206004820152601f60248201527f5265656e7472616e637947756172643a207265656e7472616e742063616c6c0060448201526064016101ec565b600260015587610ae35760405162461bcd60e51b81526020600482015260126024820152710416d6f756e74206d757374206265203e20360741b60448201526064016101ec565b6000875111610b275760405162461bcd60e51b815260206004820152601060248201526f141d5c9c1bdcd9481c995c5d5a5c995960821b60448201526064016101ec565b6000865111610b6f5760405162461bcd60e51b8152602060048201526014602482015273119d5b99081cdbdd5c98d9481c995c5d5a5c995960621b60448201526064016101ec565b610b9086805160209182012060009081526002909152604090205460ff1690565b610bad5760405163771fed7960e11b815260040160405180910390fd5b6000855111610bf75760405162461bcd60e51b8152602060048201526016602482015275111bd8dd5b595b9d081a185cda081c995c5d5a5c995960521b60448201526064016101ec565b610c0085611679565b610c725760405162461bcd60e51b815260206004820152603860248201527f496e76616c696420646f63756d656e74206861736820666f726d617420286d7560448201527f737420626520363420686578206368617261637465727329000000000000000060648201526084016101ec565b6001600160a01b038316610cc85760405162461bcd60e51b815260206004820152601a60248201527f547265617375726572206164647265737320726571756972656400000000000060448201526064016101ec565b600054604051630842e1d160e31b81526001600160a01b038581166004830152909116906342170e8890602401602060405180830381865afa158015610d12573d6000803e3d6000fd5b505050506040513d601f19601f82011682018060405250810190610d369190611ccc565b610d8c5760405162461bcd60e51b815260206004820152602160248201527f547265617375726572206d75737420626520616374697665206f6666696369616044820152601b60fa1b60648201526084016101ec565b6001600160a01b038216610df35760405162461bcd60e51b815260206004820152602860248201527f457870656e646974757265206d75737420626520617070726f7665642062792060448201526731b430b4b936b0b760c11b60648201526084016101ec565b600054604051630842e1d160e31b81526001600160a01b038481166004830152909116906342170e8890602401602060405180830381865afa158015610e3d573d6000803e3d6000fd5b505050506040513d601f19601f82011682018060405250810190610e619190611ccc565b610ead5760405162461bcd60e51b815260206004820181905260248201527f43686169726d616e206d75737420626520616374697665206f6666696369616c60448201526064016101ec565b60006004546001610ebe9190611cee565b6040805161012081018252828152602081018c81529181018b8152606082018b9052608082018a905260a082018990526001600160a01b0380891660c0840152871660e08301524261010083015260038054600181018255600091909152825160099091027fc2575a0e9e593c00f959f8c92f12db2869c3395a3b0502d05e2516446f71f85b810191825593517fc2575a0e9e593c00f959f8c92f12db2869c3395a3b0502d05e2516446f71f85c8501559051939450909290917fc2575a0e9e593c00f959f8c92f12db2869c3395a3b0502d05e2516446f71f85d0190610fa59082611d50565b5060608201516003820190610fba9082611d50565b5060808201516004820190610fcf9082611d50565b5060a082015160058083019190915560c08301516006830180546001600160a01b039283166001600160a01b03199182161790915560e085015160078501805491909316911617905561010090920151600890910155600482905580548a919060009061103d908490611cee565b925050819055508489827f5d036f2d602d6b1c3e2064e4afd3823a09b79078c77fc653472c3765e1c6e6268b8b89894260405161107e959493929190611e10565b60405180910390a46001805598975050505050505050565b61109e61177b565b6000821180156110b057506004548211155b6110f55760405162461bcd60e51b8152602060048201526016602482015275125b9d985b1a5908195e1c195b991a5d1d5c9948125160521b60448201526064016101ec565b6003611102600184611bda565b8154811061111257611112611bed565b906000526020600020906009020160405180610120016040529081600082015481526020016001820154815260200160028201805461115090611c03565b80601f016020809104026020016040519081016040528092919081815260200182805461117c90611c03565b80156111c95780601f1061119e576101008083540402835291602001916111c9565b820191906000526020600020905b8154815290600101906020018083116111ac57829003601f168201915b505050505081526020016003820180546111e290611c03565b80601f016020809104026020016040519081016040528092919081815260200182805461120e90611c03565b801561125b5780601f106112305761010080835404028352916020019161125b565b820191906000526020600020905b81548152906001019060200180831161123e57829003601f168201915b5050505050815260200160048201805461127490611c03565b80601f01602080910402602001604051908101604052809291908181526020018280546112a090611c03565b80156112ed5780601f106112c2576101008083540402835291602001916112ed565b820191906000526020600020905b8154815290600101906020018083116112d057829003601f168201915b50505091835250506005820154602082015260068201546001600160a01b039081166040830152600783015416606082015260089091015460809091015292915050565b6060600454831061137b5760405162461bcd60e51b81526020600482015260146024820152734f6666736574206f7574206f6620626f756e647360601b60448201526064016101ec565b60006113878385611cee565b905060045481111561139857506004545b60006113a48583611bda565b905060008167ffffffffffffffff8111156113c1576113c1611801565b6040519080825280602002602001820160405280156113fa57816020015b6113e761177b565b8152602001906001900390816113df5790505b50905060005b8281101561166f5760036114148289611cee565b8154811061142457611424611bed565b906000526020600020906009020160405180610120016040529081600082015481526020016001820154815260200160028201805461146290611c03565b80601f016020809104026020016040519081016040528092919081815260200182805461148e90611c03565b80156114db5780601f106114b0576101008083540402835291602001916114db565b820191906000526020600020905b8154815290600101906020018083116114be57829003601f168201915b505050505081526020016003820180546114f490611c03565b80601f016020809104026020016040519081016040528092919081815260200182805461152090611c03565b801561156d5780601f106115425761010080835404028352916020019161156d565b820191906000526020600020905b81548152906001019060200180831161155057829003601f168201915b5050505050815260200160048201805461158690611c03565b80601f01602080910402602001604051908101604052809291908181526020018280546115b290611c03565b80156115ff5780601f106115d4576101008083540402835291602001916115ff565b820191906000526020600020905b8154815290600101906020018083116115e257829003601f168201915b50505091835250506005820154602082015260068201546001600160a01b0390811660408301526007830154166060820152600890910154608090910152825183908390811061165157611651611bed565b6020026020010181905250808061166790611cb3565b915050611400565b5095945050505050565b805160009082906040146116905750600092915050565b60005b81518110156117715760008282815181106116b0576116b0611bed565b01602001516001600160f81b0319169050600360fc1b81108015906116e35750603960f81b6001600160f81b0319821611155b1580156117195750606160f81b6001600160f81b03198216108015906117175750603360f91b6001600160f81b0319821611155b155b801561174e5750604160f81b6001600160f81b031982161080159061174c5750602360f91b6001600160f81b0319821611155b155b1561175e57506000949350505050565b508061176981611cb3565b915050611693565b5060019392505050565b60405180610120016040528060008152602001600081526020016060815260200160608152602001606081526020016000815260200160006001600160a01b0316815260200160006001600160a01b03168152602001600081525090565b6040518061010001604052806008905b60608152602001906001900390816117e95790505090565b634e487b7160e01b600052604160045260246000fd5b600082601f83011261182857600080fd5b813567ffffffffffffffff8082111561184357611843611801565b604051601f8301601f19908116603f0116810190828211818310171561186b5761186b611801565b8160405283815286602085880101111561188457600080fd5b836020870160208301376000602085830101528094505050505092915050565b600080604083850312156118b757600080fd5b82359150602083013567ffffffffffffffff8111156118d557600080fd5b6118e185828601611817565b9150509250929050565b6000815180845260005b81811015611911576020818501810151868301820152016118f5565b506000602082860101526020601f19601f83011685010191505092915050565b60006101208251845260208301516020850152604083015181604086015261195b828601826118eb565b9150506060830151848203606086015261197582826118eb565b9150506080830151848203608086015261198f82826118eb565b91505060a083015160a085015260c08301516119b660c08601826001600160a01b03169052565b5060e08301516119d160e08601826001600160a01b03169052565b50610100928301519390920192909252919050565b6000602080830181845280855180835260408601915060408160051b870101925083870160005b82811015611a3b57603f19888603018452611a29858351611931565b94509285019290850190600101611a0d565b5092979650505050505050565b600060208284031215611a5a57600080fd5b5035919050565b6020808252600090610120830183820185845b6008811015611aa357601f19878503018352611a918483516118eb565b93509184019190840190600101611a74565b50919695505050505050565b80356001600160a01b0381168114611ac657600080fd5b919050565b600080600080600080600060e0888a031215611ae657600080fd5b87359650602088013567ffffffffffffffff80821115611b0557600080fd5b611b118b838c01611817565b975060408a0135915080821115611b2757600080fd5b611b338b838c01611817565b965060608a0135915080821115611b4957600080fd5b50611b568a828b01611817565b94505060808801359250611b6c60a08901611aaf565b9150611b7a60c08901611aaf565b905092959891949750929550565b602081526000611b9b6020830184611931565b9392505050565b60008060408385031215611bb557600080fd5b50508035926020909101359150565b634e487b7160e01b600052601160045260246000fd5b8181038181111561024357610243611bc4565b634e487b7160e01b600052603260045260246000fd5b600181811c90821680611c1757607f821691505b602082108103611c3757634e487b7160e01b600052602260045260246000fd5b50919050565b6000808354611c4b81611c03565b60018281168015611c635760018114611c7857611ca7565b60ff1984168752821515830287019450611ca7565b8760005260208060002060005b85811015611c9e5781548a820152908401908201611c85565b50505082870194505b50929695505050505050565b600060018201611cc557611cc5611bc4565b5060010190565b600060208284031215611cde57600080fd5b81518015158114611b9b57600080fd5b8082018082111561024357610243611bc4565b601f821115611d4b57600081815260208120601f850160051c81016020861015611d285750805b601f850160051c820191505b81811015611d4757828155600101611d34565b5050505b505050565b815167ffffffffffffffff811115611d6a57611d6a611801565b611d7e81611d788454611c03565b84611d01565b602080601f831160018114611db35760008415611d9b5750858301515b600019600386901b1c1916600185901b178555611d47565b600085815260208120601f198616915b82811015611de257888601518255948401946001909101908401611dc3565b5085821015611e005787850151600019600388901b60f8161c191681555b5050505050600190811b01905550565b60a081526000611e2360a08301886118eb565b8281036020840152611e3581886118eb565b6001600160a01b0396871660408501529490951660608301525060800152939250505056fe47656e64657220616e6420446576656c6f706d656e742028474144292046756e644c6f63616c20436f756e63696c20666f72207468652050726f74656374696f6e206f66204368696c6472656e20284c435043292046756e6453656e696f7220436974697a656e73202620506572736f6e732077697468204469736162696c6974792028505744292046756e644d61696e74656e616e636520616e64204f74686572204f7065726174696e6720457870656e73657320284d4f4f4529a26469706673582212200d79eacc2b1e0b978058de9ef4e73ba49f87c2b904b99737fa3fc3bca284c74864736f6c6343000813003347656e64657220616e6420446576656c6f706d656e742028474144292046756e644c6f63616c20436f756e63696c20666f72207468652050726f74656374696f6e206f66204368696c6472656e20284c435043292046756e6453656e696f7220436974697a656e73202620506572736f6e732077697468204469736162696c6974792028505744292046756e644d61696e74656e616e636520616e64204f74686572204f7065726174696e6720457870656e73657320284d4f4f4529",
  "immutableReferences": {},
  "source": "// SPDX-License-Identifier: MIT\r\npragma solidity ^0.8.19;\r\n\r\ninterface IBarangayOfficials {\r\n    function isActiveOfficial(address _wallet) external view returns (bool);\r\n}\r\n\r\n// Custom errors for gas optimization\r\nerror InvalidFundSource();\r\n\r\ncontract ExpenditureContract {\r\n    IBarangayOfficials public officialsContract;\r\n\r\n    // Reentrancy guard\r\n    uint256 private _status;\r\n    uint256 private constant _NOT_ENTERED = 1;\r\n    uint256 private constant _ENTERED = 2;\r\n\r\n    // Predefined fund source categories (same as allocation/proposal types)\r\n    mapping(bytes32 => bool) private validFundSources;\r\n\r\n    struct Expenditure {\r\n        uint256 id;\r\n        uint256 amount;\r\n        string purpose;\r\n        string fundSource;\r\n        string documentHash;\r\n        uint256 proposalId;       // 0 if not linked to proposal\r\n        address treasurerAddress;\r\n        address chairmanAddress;\r\n        uint256 timestamp;\r\n    }\r\n\r\n    event ExpenditureRecorded(\r\n        uint256 indexed id,\r\n        uint256 indexed amount,\r\n        string purpose,\r\n        string fundSource,\r\n        uint256 indexed proposalId,\r\n        address treasurerAddress,\r\n        address chairmanAddress,\r\n        uint256 timestamp\r\n    );\r\n\r\n    Expenditure[] private expenditures;\r\n    uint256 public expenditureCount;\r\n    uint256 private totalExpenditureAmount;\r\n\r\n    modifier onlyActiveOfficial() {\r\n        require(officialsContract.isActiveOfficial(msg.sender), \"Only active officials can perform this action\");\r\n        _;\r\n    }\r\n\r\n    modifier nonReentrant() {\r\n        require(_status != _ENTERED, \"ReentrancyGuard: reentrant call\");\r\n        _status = _ENTERED;\r\n        _;\r\n        _status = _NOT_ENTERED;\r\n    }\r\n\r\n    constructor(address _officialsContractAddress) {\r\n        require(_officialsContractAddress != address(0), \"Invalid officials contract address\");\r\n        officialsContract = IBarangayOfficials(_officialsContractAddress);\r\n        _status = _NOT_ENTERED;\r\n\r\n        // Initialize valid fund sources (same as allocation types)\r\n        validFundSources[keccak256(bytes(\"Barangay Development Fund (BDP)\"))] = true;\r\n        validFundSources[keccak256(bytes(\"Sangguniang Kabataan (SK) Fund\"))] = true;\r\n        validFundSources[keccak256(bytes(\"Calamity Fund (LDRRMF)\"))] = true;\r\n        validFundSources[keccak256(bytes(\"Gender and Development (GAD) Fund\"))] = true;\r\n        validFundSources[keccak256(bytes(\"Senior Citizens & Persons with Disability (PWD) Fund\"))] = true;\r\n        validFundSources[keccak256(bytes(\"Local Council for the Protection of Children (LCPC) Fund\"))] = true;\r\n        validFundSources[keccak256(bytes(\"Personal Services (PS)\"))] = true;\r\n        validFundSources[keccak256(bytes(\"Maintenance and Other Operating Expenses (MOOE)\"))] = true;\r\n    }\r\n\r\n    function isValidDocumentHash(string memory _hash) private pure returns (bool) {\r\n        bytes memory hashBytes = bytes(_hash);\r\n        if (hashBytes.length != 64) return false;\r\n\r\n        for (uint i = 0; i < hashBytes.length; i++) {\r\n            bytes1 char = hashBytes[i];\r\n            if (!(char >= 0x30 && char <= 0x39) && // 0-9\r\n                !(char >= 0x61 && char <= 0x66) && // a-f\r\n                !(char >= 0x41 && char <= 0x46))   // A-F\r\n                return false;\r\n        }\r\n        return true;\r\n    }\r\n\r\n    function isValidFundSource(string memory _fundSource) private view returns (bool) {\r\n        return validFundSources[keccak256(bytes(_fundSource))];\r\n    }\r\n\r\n    function recordExpenditure(\r\n        uint256 _amount,\r\n        string memory _purpose,\r\n        string memory _fundSource,\r\n        string memory _documentHash,\r\n        uint256 _proposalId,\r\n        address _treasurerAddress,\r\n        address _chairmanAddress\r\n    ) public onlyActiveOfficial nonReentrant returns (uint256) {\r\n        require(_amount > 0, \"Amount must be > 0\");\r\n        require(bytes(_purpose).length > 0, \"Purpose required\");\r\n        require(bytes(_fundSource).length > 0, \"Fund source required\");\r\n        if (!isValidFundSource(_fundSource)) revert InvalidFundSource();\r\n        require(bytes(_documentHash).length > 0, \"Document hash required\");\r\n        require(isValidDocumentHash(_documentHash), \"Invalid document hash format (must be 64 hex characters)\");\r\n        require(_treasurerAddress != address(0), \"Treasurer address required\");\r\n        require(officialsContract.isActiveOfficial(_treasurerAddress), \"Treasurer must be active official\");\r\n        // Approval check\r\n        require(_chairmanAddress != address(0), \"Expenditure must be approved by chairman\");\r\n        require(officialsContract.isActiveOfficial(_chairmanAddress), \"Chairman must be active official\");\r\n\r\n        uint256 newId = expenditureCount + 1;\r\n        expenditures.push(Expenditure({\r\n            id: newId,\r\n            amount: _amount,\r\n            purpose: _purpose,\r\n            fundSource: _fundSource,\r\n            documentHash: _documentHash,\r\n            proposalId: _proposalId,\r\n            treasurerAddress: _treasurerAddress,\r\n            chairmanAddress: _chairmanAddress,\r\n            timestamp: block.timestamp\r\n        }));\r\n        expenditureCount = newId;\r\n        totalExpenditureAmount += _amount;\r\n\r\n        emit ExpenditureRecorded(newId, _amount, _purpose, _fundSource, _proposalId, _treasurerAddress, _chairmanAddress, block.timestamp);\r\n        return newId;\r\n    }\r\n\r\n    function getExpenditure(uint256 _id) public view returns (Expenditure memory) {\r\n        require(_id > 0 && _id <= expenditureCount, \"Invalid expenditure ID\");\r\n        return expenditures[_id - 1];\r\n    }\r\n\r\n    function getAllExpenditures() public view returns (Expenditure[] memory) {\r\n        return expenditures;\r\n    }\r\n\r\n    function getExpendituresPaginated(uint256 _offset, uint256 _limit) public view returns (Expenditure[] memory) {\r\n        require(_offset < expenditureCount, \"Offset out of bounds\");\r\n\r\n        uint256 end = _offset + _limit;\r\n        if (end > expenditureCount) {\r\n            end = expenditureCount;\r\n        }\r\n\r\n        uint256 size = end - _offset;\r\n        Expenditure[] memory result = new Expenditure[](size);\r\n\r\n        for (uint256 i = 0; i < size; i++) {\r\n            result[i] = expenditures[_offset + i];\r\n        }\r\n\r\n        return result;\r\n    }\r\n\r\n    function getTotalExpenditures() public view returns (uint256) {\r\n        return totalExpenditureAmount;\r\n    }\r\n\r\n    function getExpendituresByProposal(uint256 _proposalId) public view returns (Expenditure[] memory) {\r\n        uint256 count = 0;\r\n        for (uint256 i = 0; i < expenditures.length; i++) {\r\n            if (expenditures[i].proposalId == _proposalId) {\r\n                count++;\r\n            }\r\n        }\r\n\r\n        Expenditure[] memory result = new Expenditure[](count);\r\n        uint256 index = 0;\r\n        for (uint256 i = 0; i < expenditures.length; i++) {\r\n            if (expenditures[i].proposalId == _proposalId) {\r\n                result[index] = expenditures[i];\r\n                index++;\r\n            }\r\n        }\r\n        return result;\r\n    }\r\n\r\n    function verifyExpenditureDocument(uint256 _id, string memory _documentHash) public view returns (bool) {\r\n        require(_id > 0 && _id <= expenditureCount, \"Invalid expenditure ID\");\r\n        return keccak256(bytes(expenditures[_id - 1].documentHash)) == keccak256(bytes(_documentHash));\r\n    }\r\n\r\n    function getValidFundSources() public pure returns (string[8] memory) {\r\n        return [\r\n            \"Barangay Development Fund (BDP)\",\r\n            \"Sangguniang Kabataan (SK) Fund\",\r\n            \"Calamity Fund (LDRRMF)\",\r\n            \"Gender and Development (GAD) Fund\",\r\n            \"Senior Citizens & Persons with Disability (PWD) Fund\",\r\n            \"Local Council for the Protection of Children (LCPC) Fund\",\r\n            \"Personal Services (PS)\",\r\n            \"Maintenance and Other Operating Expenses (MOOE)\"\r\n        ];\r\n    }\r\n}\r\n",
  "sourcePath": "D:\\Documents\\4Bs\\blockchain\\contracts\\ExpenditureContract.sol",
  "compiler": {
    "name": "solc",
    "version": "0.8.19+commit.7dd6d404.Emscripten.clang"
  },
  "schemaVersion": "3.4.16",
  "updatedAt": "2025-11-14T22:31:43.965Z",
  "networkType": "ethereum",
  "devdoc": {
    "kind": "dev",
    "methods": {},
    "version": 1
  },
  "userdoc": {
    "kind": "user",
    "methods": {},
    "version": 1
  }
}