{
  "contractName": "IncomeContract",
  "abi": [
    {
      "inputs": [
        {
          "internalType": "address",
          "name": "_officialsContractAddress",
          "type": "address"
        }
      ],
      "stateMutability": "nonpayable",
      "type": "constructor"
    },
    {
      "inputs": [],
      "name": "InvalidAddress",
      "type": "error"
    },
    {
      "inputs": [],
      "name": "InvalidRevenueSource",
      "type": "error"
    },
    {
      "inputs": [],
      "name": "NotActiveOfficial",
      "type": "error"
    },
    {
      "inputs": [],
      "name": "ReentrantCall",
      "type": "error"
    },
    {
      "anonymous": false,
      "inputs": [
        {
          "indexed": true,
          "internalType": "uint256",
          "name": "id",
          "type": "uint256"
        },
        {
          "indexed": true,
          "internalType": "uint256",
          "name": "amount",
          "type": "uint256"
        },
        {
          "indexed": false,
          "internalType": "string",
          "name": "revenueSource",
          "type": "string"
        },
        {
          "indexed": true,
          "internalType": "address",
          "name": "treasurerAddress",
          "type": "address"
        },
        {
          "indexed": false,
          "internalType": "uint256",
          "name": "timestamp",
          "type": "uint256"
        }
      ],
      "name": "IncomeRecorded",
      "type": "event"
    },
    {
      "inputs": [],
      "name": "incomeCount",
      "outputs": [
        {
          "internalType": "uint256",
          "name": "",
          "type": "uint256"
        }
      ],
      "stateMutability": "view",
      "type": "function"
    },
    {
      "inputs": [],
      "name": "officialsContract",
      "outputs": [
        {
          "internalType": "contract IBarangayOfficials",
          "name": "",
          "type": "address"
        }
      ],
      "stateMutability": "view",
      "type": "function"
    },
    {
      "inputs": [
        {
          "internalType": "uint256",
          "name": "_amount",
          "type": "uint256"
        },
        {
          "internalType": "string",
          "name": "_revenueSource",
          "type": "string"
        },
        {
          "internalType": "string",
          "name": "_documentHash",
          "type": "string"
        },
        {
          "internalType": "address",
          "name": "_treasurerAddress",
          "type": "address"
        }
      ],
      "name": "recordIncome",
      "outputs": [
        {
          "internalType": "uint256",
          "name": "",
          "type": "uint256"
        }
      ],
      "stateMutability": "nonpayable",
      "type": "function"
    },
    {
      "inputs": [
        {
          "internalType": "uint256",
          "name": "_id",
          "type": "uint256"
        }
      ],
      "name": "getIncome",
      "outputs": [
        {
          "components": [
            {
              "internalType": "uint256",
              "name": "id",
              "type": "uint256"
            },
            {
              "internalType": "uint256",
              "name": "amount",
              "type": "uint256"
            },
            {
              "internalType": "string",
              "name": "revenueSource",
              "type": "string"
            },
            {
              "internalType": "string",
              "name": "documentHash",
              "type": "string"
            },
            {
              "internalType": "address",
              "name": "treasurerAddress",
              "type": "address"
            },
            {
              "internalType": "uint256",
              "name": "timestamp",
              "type": "uint256"
            }
          ],
          "internalType": "struct IncomeContract.Income",
          "name": "",
          "type": "tuple"
        }
      ],
      "stateMutability": "view",
      "type": "function"
    },
    {
      "inputs": [],
      "name": "getAllIncomes",
      "outputs": [
        {
          "components": [
            {
              "internalType": "uint256",
              "name": "id",
              "type": "uint256"
            },
            {
              "internalType": "uint256",
              "name": "amount",
              "type": "uint256"
            },
            {
              "internalType": "string",
              "name": "revenueSource",
              "type": "string"
            },
            {
              "internalType": "string",
              "name": "documentHash",
              "type": "string"
            },
            {
              "internalType": "address",
              "name": "treasurerAddress",
              "type": "address"
            },
            {
              "internalType": "uint256",
              "name": "timestamp",
              "type": "uint256"
            }
          ],
          "internalType": "struct IncomeContract.Income[]",
          "name": "",
          "type": "tuple[]"
        }
      ],
      "stateMutability": "view",
      "type": "function"
    },
    {
      "inputs": [
        {
          "internalType": "uint256",
          "name": "_offset",
          "type": "uint256"
        },
        {
          "internalType": "uint256",
          "name": "_limit",
          "type": "uint256"
        }
      ],
      "name": "getIncomesPaginated",
      "outputs": [
        {
          "components": [
            {
              "internalType": "uint256",
              "name": "id",
              "type": "uint256"
            },
            {
              "internalType": "uint256",
              "name": "amount",
              "type": "uint256"
            },
            {
              "internalType": "string",
              "name": "revenueSource",
              "type": "string"
            },
            {
              "internalType": "string",
              "name": "documentHash",
              "type": "string"
            },
            {
              "internalType": "address",
              "name": "treasurerAddress",
              "type": "address"
            },
            {
              "internalType": "uint256",
              "name": "timestamp",
              "type": "uint256"
            }
          ],
          "internalType": "struct IncomeContract.Income[]",
          "name": "",
          "type": "tuple[]"
        }
      ],
      "stateMutability": "view",
      "type": "function"
    },
    {
      "inputs": [],
      "name": "getTotalIncome",
      "outputs": [
        {
          "internalType": "uint256",
          "name": "",
          "type": "uint256"
        }
      ],
      "stateMutability": "view",
      "type": "function"
    },
    {
      "inputs": [
        {
          "internalType": "uint256",
          "name": "_id",
          "type": "uint256"
        },
        {
          "internalType": "string",
          "name": "_documentHash",
          "type": "string"
        }
      ],
      "name": "verifyIncomeDocument",
      "outputs": [
        {
          "internalType": "bool",
          "name": "",
          "type": "bool"
        }
      ],
      "stateMutability": "view",
      "type": "function"
    },
    {
      "inputs": [],
      "name": "getValidRevenueSources",
      "outputs": [
        {
          "internalType": "string[7]",
          "name": "",
          "type": "string[7]"
        }
      ],
      "stateMutability": "pure",
      "type": "function"
    }
  ],
  "bytecode": "0x608060405234801561001057600080fd5b5060405161198e38038061198e83398101604081905261002f91610327565b6001600160a01b0381166100565760405163e6c4247b60e01b815260040160405180910390fd5b600080546001600160a01b0319166001600160a01b03929092169190911781556001808055604080518082018252601c81527f4e6174696f6e616c2054617820416c6c6f746d656e7420284e544129000000006020918201527fb7ef6dc05ac9809d4a224f72f54b3b59ab32f97d0fe235648b83c391b20e3b6d805460ff199081168517909155825180840184528281527f5368617265206f66205265616c2050726f706572747920546178202852505429908301527fc474976e77888c216ba65de775d33dbf20ec206aa868a3531f977133f3e854d3805482168517905582518084018452601681527f5368617265206f6620436f6d6d756e6974792054617800000000000000000000908301527fcd0a2bb44ed94e481e17ec327fb9ffb1b3913ec0cd6e2aee2543e0eaf25f8969805482168517905582518084018452601981527f5461786573206f6e2053746f7265732f52657461696c65727300000000000000908301527f7ee0df6abf0dd49c70bb571c91fe4316e2ccd8b9f23c92f5989a9e5dab27243580548216851790558251808401845260178082527f426172616e676179204665657320262043686172676573000000000000000000918401919091527f781e403a2e11c26c46d2a0004406fd4cce972890f874e384c38c35fec26c98cb8054831686179055835180850185529081527f526576656e75652066726f6d204f7065726174696f6e73000000000000000000908301527fc6aadd2dbf513492b75cbbd3c57e61996f55a147568d0a281af752791d9f22a480548216851790558251808401909352601883527f4772616e74732c204169642c202620446f6e6174696f6e730000000000000000928201929092527f8575044040a0a4e1a7fed0980636ad1cf5f1acfc6efe2aff70b11f2c313e9b2290935260029092527ffbd1abec5f34692b21d19a01283980df72e3b99fd5338585c7abd25d5c6500668054909216179055610357565b60006020828403121561033957600080fd5b81516001600160a01b038116811461035057600080fd5b9392505050565b611628806103666000396000f3fe608060405234801561001057600080fd5b50600436106100935760003560e01c80637a191ee0116100665780637a191ee0146100f057806382c4316f146101035780638579151014610126578063afb7afbb14610146578063d4622ae11461014f57600080fd5b8063090b684f146100985780630a557b43146100b657806324b6046a146100cb578063731a87f2146100dd575b600080fd5b6100a061017a565b6040516100ad9190611109565b60405180910390f35b6100be610334565b6040516100ad919061116b565b6005545b6040519081526020016100ad565b6100a06100eb3660046111b9565b6104bd565b6100cf6100fe36600461127e565b610762565b61011661011136600461130a565b610c5e565b60405190151581526020016100ad565b610139610134366004611351565b610d04565b6040516100ad919061136a565b6100cf60045481565b600054610162906001600160a01b031681565b6040516001600160a01b0390911681526020016100ad565b60606003805480602002602001604051908101604052809291908181526020016000905b8282101561032b57838290600052602060002090600602016040518060c001604052908160008201548152602001600182015481526020016002820180546101e590611384565b80601f016020809104026020016040519081016040528092919081815260200182805461021190611384565b801561025e5780601f106102335761010080835404028352916020019161025e565b820191906000526020600020905b81548152906001019060200180831161024157829003601f168201915b5050505050815260200160038201805461027790611384565b80601f01602080910402602001604051908101604052809291908181526020018280546102a390611384565b80156102f05780601f106102c5576101008083540402835291602001916102f0565b820191906000526020600020905b8154815290600101906020018083116102d357829003601f168201915b505050918352505060048201546001600160a01b0316602080830191909152600590920154604090910152908252600192909201910161019e565b50505050905090565b61033c610ff2565b506040805161012081018252601c60e082019081527f4e6174696f6e616c2054617820416c6c6f746d656e7420284e5441290000000061010083015281528151808301835260208082527f5368617265206f66205265616c2050726f70657274792054617820285250542982820152808301919091528251808401845260168152750a6d0c2e4ca40decc4086dedadaeadcd2e8f240a8c2f60531b818301528284015282518084018452601981527f5461786573206f6e2053746f7265732f52657461696c657273000000000000008183015260608301528251808401845260178082527f426172616e676179204665657320262043686172676573000000000000000000828401526080840191909152835180850185529081527f526576656e75652066726f6d204f7065726174696f6e730000000000000000008183015260a08301528251808401909352601883527f4772616e74732c204169642c202620446f6e6174696f6e7300000000000000009083015260c081019190915290565b6060600454831061050c5760405162461bcd60e51b81526020600482015260146024820152734f6666736574206f7574206f6620626f756e647360601b60448201526064015b60405180910390fd5b600061051883856113d4565b905060045481111561052957506004545b600061053585836113e7565b905060008167ffffffffffffffff811115610552576105526111db565b60405190808252806020026020018201604052801561058b57816020015b610578611019565b8152602001906001900390816105705790505b50905060005b828110156107565760036105a582896113d4565b815481106105b5576105b56113fa565b90600052602060002090600602016040518060c001604052908160008201548152602001600182015481526020016002820180546105f290611384565b80601f016020809104026020016040519081016040528092919081815260200182805461061e90611384565b801561066b5780601f106106405761010080835404028352916020019161066b565b820191906000526020600020905b81548152906001019060200180831161064e57829003601f168201915b5050505050815260200160038201805461068490611384565b80601f01602080910402602001604051908101604052809291908181526020018280546106b090611384565b80156106fd5780601f106106d2576101008083540402835291602001916106fd565b820191906000526020600020905b8154815290600101906020018083116106e057829003601f168201915b505050918352505060048201546001600160a01b031660208201526005909101546040909101528251839083908110610738576107386113fa565b6020026020010181905250808061074e90611410565b915050610591565b50925050505b92915050565b60008054604051630842e1d160e31b81523360048201526001600160a01b03909116906342170e8890602401602060405180830381865afa1580156107ab573d6000803e3d6000fd5b505050506040513d601f19601f820116820180604052508101906107cf9190611429565b6107ec57604051637075232f60e11b815260040160405180910390fd5b60026001540361080f576040516306fda65d60e31b815260040160405180910390fd5b6002600155846108565760405162461bcd60e51b81526020600482015260126024820152710416d6f756e74206d757374206265203e20360741b6044820152606401610503565b60008451116108a75760405162461bcd60e51b815260206004820152601760248201527f526576656e756520736f757263652072657175697265640000000000000000006044820152606401610503565b6108c884805160209182012060009081526002909152604090205460ff1690565b6108e557604051636e71dfdf60e11b815260040160405180910390fd5b600083511161092f5760405162461bcd60e51b8152602060048201526016602482015275111bd8dd5b595b9d081a185cda081c995c5d5a5c995960521b6044820152606401610503565b61093883610ef0565b6109aa5760405162461bcd60e51b815260206004820152603860248201527f496e76616c696420646f63756d656e74206861736820666f726d617420286d7560448201527f73742062652036342068657820636861726163746572732900000000000000006064820152608401610503565b6001600160a01b038216610a005760405162461bcd60e51b815260206004820152601a60248201527f54726561737572657220616464726573732072657175697265640000000000006044820152606401610503565b600054604051630842e1d160e31b81526001600160a01b038481166004830152909116906342170e8890602401602060405180830381865afa158015610a4a573d6000803e3d6000fd5b505050506040513d601f19601f82011682018060405250810190610a6e9190611429565b610ac45760405162461bcd60e51b815260206004820152602160248201527f547265617375726572206d75737420626520616374697665206f6666696369616044820152601b60fa1b6064820152608401610503565b60006004546001610ad591906113d4565b6040805160c08101825282815260208101898152918101888152606082018890526001600160a01b03871660808301524260a083015260038054600181018255600091909152825160069091027fc2575a0e9e593c00f959f8c92f12db2869c3395a3b0502d05e2516446f71f85b810191825593517fc2575a0e9e593c00f959f8c92f12db2869c3395a3b0502d05e2516446f71f85c8501559051939450909290917fc2575a0e9e593c00f959f8c92f12db2869c3395a3b0502d05e2516446f71f85d0190610ba4908261149a565b5060608201516003820190610bb9908261149a565b506080820151600482810180546001600160a01b0319166001600160a01b039093169290921790915560a090920151600591820155908290558054879190600090610c059084906113d4565b92505081905550826001600160a01b031686827f5c21dd11408e8d06727e593ca81857b5a7f113be2370d5beae3cf1e700f69aae8842604051610c4992919061155a565b60405180910390a46001805595945050505050565b60008083118015610c7157506004548311155b610cb15760405162461bcd60e51b8152602060048201526011602482015270125b9d985b1a59081a5b98dbdb59481251607a1b6044820152606401610503565b815160208301206003610cc56001866113e7565b81548110610cd557610cd56113fa565b9060005260206000209060060201600301604051610cf3919061157c565b604051809103902014905092915050565b610d0c611019565b600082118015610d1e57506004548211155b610d5e5760405162461bcd60e51b8152602060048201526011602482015270125b9d985b1a59081a5b98dbdb59481251607a1b6044820152606401610503565b6003610d6b6001846113e7565b81548110610d7b57610d7b6113fa565b90600052602060002090600602016040518060c00160405290816000820154815260200160018201548152602001600282018054610db890611384565b80601f0160208091040260200160405190810160405280929190818152602001828054610de490611384565b8015610e315780601f10610e0657610100808354040283529160200191610e31565b820191906000526020600020905b815481529060010190602001808311610e1457829003601f168201915b50505050508152602001600382018054610e4a90611384565b80601f0160208091040260200160405190810160405280929190818152602001828054610e7690611384565b8015610ec35780601f10610e9857610100808354040283529160200191610ec3565b820191906000526020600020905b815481529060010190602001808311610ea657829003601f168201915b505050918352505060048201546001600160a01b0316602082015260059091015460409091015292915050565b80516000908290604014610f075750600092915050565b60005b8151811015610fe8576000828281518110610f2757610f276113fa565b01602001516001600160f81b0319169050600360fc1b8110801590610f5a5750603960f81b6001600160f81b0319821611155b158015610f905750606160f81b6001600160f81b0319821610801590610f8e5750603360f91b6001600160f81b0319821611155b155b8015610fc55750604160f81b6001600160f81b0319821610801590610fc35750602360f91b6001600160f81b0319821611155b155b15610fd557506000949350505050565b5080610fe081611410565b915050610f0a565b5060019392505050565b6040518060e001604052806007905b60608152602001906001900390816110015790505090565b6040518060c001604052806000815260200160008152602001606081526020016060815260200160006001600160a01b03168152602001600081525090565b6000815180845260005b8181101561107e57602081850181015186830182015201611062565b506000602082860101526020601f19601f83011685010191505092915050565b80518252602081015160208301526000604082015160c060408501526110c760c0850182611058565b9050606083015184820360608601526110e08282611058565b6080858101516001600160a01b03169087015260a0948501519590940194909452509092915050565b6000602080830181845280855180835260408601915060408160051b870101925083870160005b8281101561115e57603f1988860301845261114c85835161109e565b94509285019290850190600101611130565b5092979650505050505050565b6020808252600090610100830183820185845b60078110156111ad57601f1987850301835261119b848351611058565b9350918401919084019060010161117e565b50919695505050505050565b600080604083850312156111cc57600080fd5b50508035926020909101359150565b634e487b7160e01b600052604160045260246000fd5b600082601f83011261120257600080fd5b813567ffffffffffffffff8082111561121d5761121d6111db565b604051601f8301601f19908116603f01168101908282118183101715611245576112456111db565b8160405283815286602085880101111561125e57600080fd5b836020870160208301376000602085830101528094505050505092915050565b6000806000806080858703121561129457600080fd5b84359350602085013567ffffffffffffffff808211156112b357600080fd5b6112bf888389016111f1565b945060408701359150808211156112d557600080fd5b506112e2878288016111f1565b92505060608501356001600160a01b03811681146112ff57600080fd5b939692955090935050565b6000806040838503121561131d57600080fd5b82359150602083013567ffffffffffffffff81111561133b57600080fd5b611347858286016111f1565b9150509250929050565b60006020828403121561136357600080fd5b5035919050565b60208152600061137d602083018461109e565b9392505050565b600181811c9082168061139857607f821691505b6020821081036113b857634e487b7160e01b600052602260045260246000fd5b50919050565b634e487b7160e01b600052601160045260246000fd5b8082018082111561075c5761075c6113be565b8181038181111561075c5761075c6113be565b634e487b7160e01b600052603260045260246000fd5b600060018201611422576114226113be565b5060010190565b60006020828403121561143b57600080fd5b8151801515811461137d57600080fd5b601f82111561149557600081815260208120601f850160051c810160208610156114725750805b601f850160051c820191505b818110156114915782815560010161147e565b5050505b505050565b815167ffffffffffffffff8111156114b4576114b46111db565b6114c8816114c28454611384565b8461144b565b602080601f8311600181146114fd57600084156114e55750858301515b600019600386901b1c1916600185901b178555611491565b600085815260208120601f198616915b8281101561152c5788860151825594840194600190910190840161150d565b508582101561154a5787850151600019600388901b60f8161c191681555b5050505050600190811b01905550565b60408152600061156d6040830185611058565b90508260208301529392505050565b600080835461158a81611384565b600182811680156115a257600181146115b7576115e6565b60ff19841687528215158302870194506115e6565b8760005260208060002060005b858110156115dd5781548a8201529084019082016115c4565b50505082870194505b5092969550505050505056fea2646970667358221220f9e1c24aa9c3bf18f0f5392f58d7ef768531225dba23a44f93f1fedc889e656f64736f6c63430008130033",
  "immutableReferences": {},
  "source": "// SPDX-License-Identifier: MIT\r\npragma solidity ^0.8.19;\r\n\r\ninterface IBarangayOfficials {\r\n    function isActiveOfficial(address _wallet) external view returns (bool);\r\n}\r\n\r\n// Custom errors for gas optimization\r\nerror InvalidAmount();\r\nerror RevenueSourceRequired();\r\nerror InvalidRevenueSource();\r\nerror DocumentHashRequired();\r\nerror InvalidDocumentHash();\r\nerror InvalidAddress();\r\nerror NotActiveOfficial();\r\nerror InvalidIncomeID();\r\nerror ReentrantCall();\r\nerror OffsetOutOfBounds();\r\n\r\ncontract IncomeContract {\r\n    IBarangayOfficials public officialsContract;\r\n\r\n    // Reentrancy guard\r\n    uint256 private _status;\r\n    uint256 private constant _NOT_ENTERED = 1;\r\n    uint256 private constant _ENTERED = 2;\r\n\r\n    // Predefined revenue source categories\r\n    mapping(bytes32 => bool) private validRevenueSources;\r\n\r\n    struct Income {\r\n        uint256 id;\r\n        uint256 amount;\r\n        string revenueSource;\r\n        string documentHash;      // SHA-256 hex string of uploaded doc\r\n        address treasurerAddress;\r\n        uint256 timestamp;\r\n    }\r\n\r\n    event IncomeRecorded(\r\n        uint256 indexed id,\r\n        uint256 indexed amount,\r\n        string revenueSource,\r\n        address indexed treasurerAddress,\r\n        uint256 timestamp\r\n    );\r\n\r\n    Income[] private incomes;\r\n    uint256 public incomeCount;\r\n    uint256 private totalIncomeAmount;\r\n\r\n    modifier onlyActiveOfficial() {\r\n        if (!officialsContract.isActiveOfficial(msg.sender)) revert NotActiveOfficial();\r\n        _;\r\n    }\r\n\r\n    modifier nonReentrant() {\r\n        if (_status == _ENTERED) revert ReentrantCall();\r\n        _status = _ENTERED;\r\n        _;\r\n        _status = _NOT_ENTERED;\r\n    }\r\n\r\n    constructor(address _officialsContractAddress) {\r\n        if (_officialsContractAddress == address(0)) revert InvalidAddress();\r\n        officialsContract = IBarangayOfficials(_officialsContractAddress);\r\n        _status = _NOT_ENTERED;\r\n\r\n        // Initialize valid revenue sources\r\n        validRevenueSources[keccak256(bytes(\"National Tax Allotment (NTA)\"))] = true;\r\n        validRevenueSources[keccak256(bytes(\"Share of Real Property Tax (RPT)\"))] = true;\r\n        validRevenueSources[keccak256(bytes(\"Share of Community Tax\"))] = true;\r\n        validRevenueSources[keccak256(bytes(\"Taxes on Stores/Retailers\"))] = true;\r\n        validRevenueSources[keccak256(bytes(\"Barangay Fees & Charges\"))] = true;\r\n        validRevenueSources[keccak256(bytes(\"Revenue from Operations\"))] = true;\r\n        validRevenueSources[keccak256(bytes(\"Grants, Aid, & Donations\"))] = true;\r\n    }\r\n\r\n    function isValidDocumentHash(string memory _hash) private pure returns (bool) {\r\n        bytes memory hashBytes = bytes(_hash);\r\n        if (hashBytes.length != 64) return false;\r\n\r\n        for (uint i = 0; i < hashBytes.length; i++) {\r\n            bytes1 char = hashBytes[i];\r\n            if (!(char >= 0x30 && char <= 0x39) && // 0-9\r\n                !(char >= 0x61 && char <= 0x66) && // a-f\r\n                !(char >= 0x41 && char <= 0x46))   // A-F\r\n                return false;\r\n        }\r\n        return true;\r\n    }\r\n\r\n    function isValidRevenueSource(string memory _revenueSource) private view returns (bool) {\r\n        return validRevenueSources[keccak256(bytes(_revenueSource))];\r\n    }\r\n\r\n    function recordIncome(\r\n        uint256 _amount,\r\n        string memory _revenueSource,\r\n        string memory _documentHash,\r\n        address _treasurerAddress\r\n    ) public onlyActiveOfficial nonReentrant returns (uint256) {\r\n        require(_amount > 0, \"Amount must be > 0\");\r\n        require(bytes(_revenueSource).length > 0, \"Revenue source required\");\r\n        if (!isValidRevenueSource(_revenueSource)) revert InvalidRevenueSource();\r\n        require(bytes(_documentHash).length > 0, \"Document hash required\");\r\n        require(isValidDocumentHash(_documentHash), \"Invalid document hash format (must be 64 hex characters)\");\r\n        require(_treasurerAddress != address(0), \"Treasurer address required\");\r\n        require(officialsContract.isActiveOfficial(_treasurerAddress), \"Treasurer must be active official\");\r\n\r\n        uint256 newId = incomeCount + 1;\r\n        incomes.push(Income({\r\n            id: newId,\r\n            amount: _amount,\r\n            revenueSource: _revenueSource,\r\n            documentHash: _documentHash,\r\n            treasurerAddress: _treasurerAddress,\r\n            timestamp: block.timestamp\r\n        }));\r\n        incomeCount = newId;\r\n        totalIncomeAmount += _amount;\r\n\r\n        emit IncomeRecorded(newId, _amount, _revenueSource, _treasurerAddress, block.timestamp);\r\n        return newId;\r\n    }\r\n\r\n    function getIncome(uint256 _id) public view returns (Income memory) {\r\n        require(_id > 0 && _id <= incomeCount, \"Invalid income ID\");\r\n        return incomes[_id - 1];\r\n    }\r\n\r\n    function getAllIncomes() public view returns (Income[] memory) {\r\n        return incomes;\r\n    }\r\n\r\n    function getIncomesPaginated(uint256 _offset, uint256 _limit) public view returns (Income[] memory) {\r\n        require(_offset < incomeCount, \"Offset out of bounds\");\r\n\r\n        uint256 end = _offset + _limit;\r\n        if (end > incomeCount) {\r\n            end = incomeCount;\r\n        }\r\n\r\n        uint256 size = end - _offset;\r\n        Income[] memory result = new Income[](size);\r\n\r\n        for (uint256 i = 0; i < size; i++) {\r\n            result[i] = incomes[_offset + i];\r\n        }\r\n\r\n        return result;\r\n    }\r\n\r\n    function getTotalIncome() public view returns (uint256) {\r\n        return totalIncomeAmount;\r\n    }\r\n\r\n    function verifyIncomeDocument(uint256 _id, string memory _documentHash) public view returns (bool) {\r\n        require(_id > 0 && _id <= incomeCount, \"Invalid income ID\");\r\n        return keccak256(bytes(incomes[_id - 1].documentHash)) == keccak256(bytes(_documentHash));\r\n    }\r\n\r\n    function getValidRevenueSources() public pure returns (string[7] memory) {\r\n        return [\r\n            \"National Tax Allotment (NTA)\",\r\n            \"Share of Real Property Tax (RPT)\",\r\n            \"Share of Community Tax\",\r\n            \"Taxes on Stores/Retailers\",\r\n            \"Barangay Fees & Charges\",\r\n            \"Revenue from Operations\",\r\n            \"Grants, Aid, & Donations\"\r\n        ];\r\n    }\r\n}\r\n",
  "sourcePath": "D:\\Documents\\4Bs\\blockchain\\contracts\\IncomeContract.sol",
  "compiler": {
    "name": "solc",
    "version": "0.8.19+commit.7dd6d404.Emscripten.clang"
  },
  "schemaVersion": "3.4.16",
  "updatedAt": "2025-11-04T17:09:29.129Z",
  "devdoc": {
    "kind": "dev",
    "methods": {},
    "version": 1
  },
  "userdoc": {
    "kind": "user",
    "methods": {},
    "version": 1
  }
}