{
  "contractName": "ProposalContract",
  "abi": [
    {
      "inputs": [
        {
          "internalType": "address",
          "name": "_officialsContractAddress",
          "type": "address"
        }
      ],
      "stateMutability": "nonpayable",
      "type": "constructor"
    },
    {
      "inputs": [],
      "name": "InvalidFundSource",
      "type": "error"
    },
    {
      "anonymous": false,
      "inputs": [
        {
          "indexed": true,
          "internalType": "uint256",
          "name": "id",
          "type": "uint256"
        },
        {
          "indexed": true,
          "internalType": "uint256",
          "name": "amount",
          "type": "uint256"
        },
        {
          "indexed": false,
          "internalType": "string",
          "name": "purpose",
          "type": "string"
        },
        {
          "indexed": false,
          "internalType": "string",
          "name": "fundSource",
          "type": "string"
        },
        {
          "indexed": false,
          "internalType": "string",
          "name": "expenseType",
          "type": "string"
        },
        {
          "indexed": false,
          "internalType": "string",
          "name": "proposer",
          "type": "string"
        },
        {
          "indexed": true,
          "internalType": "address",
          "name": "treasurerAddress",
          "type": "address"
        },
        {
          "indexed": false,
          "internalType": "address",
          "name": "chairmanAddress",
          "type": "address"
        },
        {
          "indexed": false,
          "internalType": "uint256",
          "name": "timestamp",
          "type": "uint256"
        }
      ],
      "name": "ProposalRecorded",
      "type": "event"
    },
    {
      "inputs": [],
      "name": "officialsContract",
      "outputs": [
        {
          "internalType": "contract IBarangayOfficials",
          "name": "",
          "type": "address"
        }
      ],
      "stateMutability": "view",
      "type": "function"
    },
    {
      "inputs": [],
      "name": "proposalCount",
      "outputs": [
        {
          "internalType": "uint256",
          "name": "",
          "type": "uint256"
        }
      ],
      "stateMutability": "view",
      "type": "function"
    },
    {
      "inputs": [
        {
          "internalType": "uint256",
          "name": "_amount",
          "type": "uint256"
        },
        {
          "internalType": "string",
          "name": "_purpose",
          "type": "string"
        },
        {
          "internalType": "string",
          "name": "_fundSource",
          "type": "string"
        },
        {
          "internalType": "string",
          "name": "_expenseType",
          "type": "string"
        },
        {
          "internalType": "string",
          "name": "_proposer",
          "type": "string"
        },
        {
          "internalType": "string",
          "name": "_documentHash",
          "type": "string"
        },
        {
          "internalType": "address",
          "name": "_treasurerAddress",
          "type": "address"
        },
        {
          "internalType": "address",
          "name": "_chairmanAddress",
          "type": "address"
        }
      ],
      "name": "recordProposal",
      "outputs": [
        {
          "internalType": "uint256",
          "name": "",
          "type": "uint256"
        }
      ],
      "stateMutability": "nonpayable",
      "type": "function"
    },
    {
      "inputs": [
        {
          "internalType": "uint256",
          "name": "_id",
          "type": "uint256"
        }
      ],
      "name": "getProposal",
      "outputs": [
        {
          "components": [
            {
              "internalType": "uint256",
              "name": "id",
              "type": "uint256"
            },
            {
              "internalType": "uint256",
              "name": "amount",
              "type": "uint256"
            },
            {
              "internalType": "string",
              "name": "purpose",
              "type": "string"
            },
            {
              "internalType": "string",
              "name": "fundSource",
              "type": "string"
            },
            {
              "internalType": "string",
              "name": "expenseType",
              "type": "string"
            },
            {
              "internalType": "string",
              "name": "proposer",
              "type": "string"
            },
            {
              "internalType": "string",
              "name": "documentHash",
              "type": "string"
            },
            {
              "internalType": "address",
              "name": "treasurerAddress",
              "type": "address"
            },
            {
              "internalType": "address",
              "name": "chairmanAddress",
              "type": "address"
            },
            {
              "internalType": "uint256",
              "name": "timestamp",
              "type": "uint256"
            }
          ],
          "internalType": "struct ProposalContract.Proposal",
          "name": "",
          "type": "tuple"
        }
      ],
      "stateMutability": "view",
      "type": "function"
    },
    {
      "inputs": [],
      "name": "getAllProposals",
      "outputs": [
        {
          "components": [
            {
              "internalType": "uint256",
              "name": "id",
              "type": "uint256"
            },
            {
              "internalType": "uint256",
              "name": "amount",
              "type": "uint256"
            },
            {
              "internalType": "string",
              "name": "purpose",
              "type": "string"
            },
            {
              "internalType": "string",
              "name": "fundSource",
              "type": "string"
            },
            {
              "internalType": "string",
              "name": "expenseType",
              "type": "string"
            },
            {
              "internalType": "string",
              "name": "proposer",
              "type": "string"
            },
            {
              "internalType": "string",
              "name": "documentHash",
              "type": "string"
            },
            {
              "internalType": "address",
              "name": "treasurerAddress",
              "type": "address"
            },
            {
              "internalType": "address",
              "name": "chairmanAddress",
              "type": "address"
            },
            {
              "internalType": "uint256",
              "name": "timestamp",
              "type": "uint256"
            }
          ],
          "internalType": "struct ProposalContract.Proposal[]",
          "name": "",
          "type": "tuple[]"
        }
      ],
      "stateMutability": "view",
      "type": "function"
    },
    {
      "inputs": [
        {
          "internalType": "uint256",
          "name": "_offset",
          "type": "uint256"
        },
        {
          "internalType": "uint256",
          "name": "_limit",
          "type": "uint256"
        }
      ],
      "name": "getProposalsPaginated",
      "outputs": [
        {
          "components": [
            {
              "internalType": "uint256",
              "name": "id",
              "type": "uint256"
            },
            {
              "internalType": "uint256",
              "name": "amount",
              "type": "uint256"
            },
            {
              "internalType": "string",
              "name": "purpose",
              "type": "string"
            },
            {
              "internalType": "string",
              "name": "fundSource",
              "type": "string"
            },
            {
              "internalType": "string",
              "name": "expenseType",
              "type": "string"
            },
            {
              "internalType": "string",
              "name": "proposer",
              "type": "string"
            },
            {
              "internalType": "string",
              "name": "documentHash",
              "type": "string"
            },
            {
              "internalType": "address",
              "name": "treasurerAddress",
              "type": "address"
            },
            {
              "internalType": "address",
              "name": "chairmanAddress",
              "type": "address"
            },
            {
              "internalType": "uint256",
              "name": "timestamp",
              "type": "uint256"
            }
          ],
          "internalType": "struct ProposalContract.Proposal[]",
          "name": "",
          "type": "tuple[]"
        }
      ],
      "stateMutability": "view",
      "type": "function"
    },
    {
      "inputs": [],
      "name": "getTotalProposalAmount",
      "outputs": [
        {
          "internalType": "uint256",
          "name": "",
          "type": "uint256"
        }
      ],
      "stateMutability": "view",
      "type": "function"
    },
    {
      "inputs": [
        {
          "internalType": "uint256",
          "name": "_id",
          "type": "uint256"
        },
        {
          "internalType": "string",
          "name": "_documentHash",
          "type": "string"
        }
      ],
      "name": "verifyProposalDocument",
      "outputs": [
        {
          "internalType": "bool",
          "name": "",
          "type": "bool"
        }
      ],
      "stateMutability": "view",
      "type": "function"
    },
    {
      "inputs": [],
      "name": "getValidFundSources",
      "outputs": [
        {
          "internalType": "string[8]",
          "name": "",
          "type": "string[8]"
        }
      ],
      "stateMutability": "pure",
      "type": "function"
    }
  ],
  "bytecode": "0x60806040523480156200001157600080fd5b50604051620024ff380380620024ff8339810160408190526200003491620003a3565b6001600160a01b0381166200009a5760405162461bcd60e51b815260206004820152602260248201527f496e76616c6964206f6666696369616c7320636f6e7472616374206164647265604482015261737360f01b606482015260840160405180910390fd5b600080546001600160a01b0319166001600160a01b0383161781556001808055604080518082018252601f81527f426172616e67617920446576656c6f706d656e742046756e64202842445029006020918201527f312fcf26d2cc4b29d0c62db1f8bf5bd2b3e8bcace2971500d3b8454830604de0805460ff19908116851790915582518084018452601e81527f53616e6767756e69616e67204b6162617461616e2028534b292046756e640000908301527f7c1e8a3b5ace1b40747900349e98dc84278cad7f378984b088ef11707a0360ba805482168517905582518084018452601681527f43616c616d6974792046756e6420284c4452524d462900000000000000000000908301527ffe1322148b91c082f6819d37d7d7197237490edf935658d44eafa239417ae9db855260028083527f22bf7e2f036ea46990aa6b8786fb0417d14a05106c9d0d90e1a7446ee26223d680549092168517909155825160608101909352602180845293949093909291620024439083013980519060200120815260200190815260200160002060006101000a81548160ff0219169083151502179055506001600260006040518060600160405280603481526020016200249c6034913980519060200120815260200190815260200160002060006101000a81548160ff0219169083151502179055506001600260006040518060600160405280603881526020016200246460389139805160209182012082528181019290925260409081016000908120805494151560ff1995861617905581518083018352601681527f506572736f6e616c205365727669636573202850532900000000000000000000908401527faa0dffe69a959afa6eead12628b82bb9a081ebb08074dd892446daa64abaeb8e815260028084527fe1cd3d861f2ede1682cc59b4c3733dd31b4d330104cbc8e1420369449f058e5b80549095166001908117909555825160608101909352602f8084529093919291620024d09083013980516020918201208252810191909152604001600020805460ff191691151591909117905550620003d5565b600060208284031215620003b657600080fd5b81516001600160a01b0381168114620003ce57600080fd5b9392505050565b61205e80620003e56000396000f3fe608060405234801561001057600080fd5b50600436106100935760003560e01c8063c7f758a811610066578063c7f758a814610116578063cceb68f514610136578063d4622ae11461013e578063da35c66414610169578063f4e964fe1461017257600080fd5b80630b477695146100985780636c5721c5146100c0578063ace444e8146100e0578063c31f56c814610101575b600080fd5b6100ab6100a6366004611932565b61017a565b60405190151581526020015b60405180910390f35b6100d36100ce366004611979565b610228565b6040516100b79190611ab8565b6100f36100ee366004611b36565b61068a565b6040519081526020016100b7565b610109610e62565b6040516100b79190611c33565b610129610124366004611c81565b610fce565b6040516100b79190611c9a565b6100d3611380565b600054610151906001600160a01b031681565b6040516001600160a01b0390911681526020016100b7565b6100f360045481565b6005546100f3565b6000808311801561018d57506004548311155b6101d45760405162461bcd60e51b8152602060048201526013602482015272125b9d985b1a59081c1c9bdc1bdcd85b081251606a1b60448201526064015b60405180910390fd5b8151602083012060036101e8600186611cca565b815481106101f8576101f8611cdd565b90600052602060002090600a02016006016040516102169190611d2d565b60405180910390201490505b92915050565b606060045483106102725760405162461bcd60e51b81526020600482015260146024820152734f6666736574206f7574206f6620626f756e647360601b60448201526064016101cb565b600061027e8385611da3565b905060045481111561028f57506004545b600061029b8583611cca565b905060008167ffffffffffffffff8111156102b8576102b861188f565b6040519080825280602002602001820160405280156102f157816020015b6102de611802565b8152602001906001900390816102d65790505b50905060005b8281101561068057600361030b8289611da3565b8154811061031b5761031b611cdd565b90600052602060002090600a020160405180610140016040529081600082015481526020016001820154815260200160028201805461035990611cf3565b80601f016020809104026020016040519081016040528092919081815260200182805461038590611cf3565b80156103d25780601f106103a7576101008083540402835291602001916103d2565b820191906000526020600020905b8154815290600101906020018083116103b557829003601f168201915b505050505081526020016003820180546103eb90611cf3565b80601f016020809104026020016040519081016040528092919081815260200182805461041790611cf3565b80156104645780601f1061043957610100808354040283529160200191610464565b820191906000526020600020905b81548152906001019060200180831161044757829003601f168201915b5050505050815260200160048201805461047d90611cf3565b80601f01602080910402602001604051908101604052809291908181526020018280546104a990611cf3565b80156104f65780601f106104cb576101008083540402835291602001916104f6565b820191906000526020600020905b8154815290600101906020018083116104d957829003601f168201915b5050505050815260200160058201805461050f90611cf3565b80601f016020809104026020016040519081016040528092919081815260200182805461053b90611cf3565b80156105885780601f1061055d57610100808354040283529160200191610588565b820191906000526020600020905b81548152906001019060200180831161056b57829003601f168201915b505050505081526020016006820180546105a190611cf3565b80601f01602080910402602001604051908101604052809291908181526020018280546105cd90611cf3565b801561061a5780601f106105ef5761010080835404028352916020019161061a565b820191906000526020600020905b8154815290600101906020018083116105fd57829003601f168201915b505050918352505060078201546001600160a01b0390811660208301526008830154166040820152600990910154606090910152825183908390811061066257610662611cdd565b6020026020010181905250808061067890611db6565b9150506102f7565b5095945050505050565b60008054604051630842e1d160e31b81523360048201526001600160a01b03909116906342170e8890602401602060405180830381865afa1580156106d3573d6000803e3d6000fd5b505050506040513d601f19601f820116820180604052508101906106f79190611dcf565b6107595760405162461bcd60e51b815260206004820152602d60248201527f4f6e6c7920616374697665206f6666696369616c732063616e20706572666f7260448201526c36903a3434b99030b1ba34b7b760991b60648201526084016101cb565b6002600154036107ab5760405162461bcd60e51b815260206004820152601f60248201527f5265656e7472616e637947756172643a207265656e7472616e742063616c6c0060448201526064016101cb565b6002600155886107f25760405162461bcd60e51b81526020600482015260126024820152710416d6f756e74206d757374206265203e20360741b60448201526064016101cb565b60008851116108365760405162461bcd60e51b815260206004820152601060248201526f141d5c9c1bdcd9481c995c5d5a5c995960821b60448201526064016101cb565b600087511161087e5760405162461bcd60e51b8152602060048201526014602482015273119d5b99081cdbdd5c98d9481c995c5d5a5c995960621b60448201526064016101cb565b61089f87805160209182012060009081526002909152604090205460ff1690565b6108bc5760405163771fed7960e11b815260040160405180910390fd5b60008651116109055760405162461bcd60e51b8152602060048201526015602482015274115e1c195b9cd9481d1e5c19481c995c5d5a5c9959605a1b60448201526064016101cb565b600085511161094a5760405162461bcd60e51b8152602060048201526011602482015270141c9bdc1bdcd95c881c995c5d5a5c9959607a1b60448201526064016101cb565b60008451116109945760405162461bcd60e51b8152602060048201526016602482015275111bd8dd5b595b9d081a185cda081c995c5d5a5c995960521b60448201526064016101cb565b61099d84611700565b610a0f5760405162461bcd60e51b815260206004820152603860248201527f496e76616c696420646f63756d656e74206861736820666f726d617420286d7560448201527f737420626520363420686578206368617261637465727329000000000000000060648201526084016101cb565b6001600160a01b038316610a655760405162461bcd60e51b815260206004820152601a60248201527f547265617375726572206164647265737320726571756972656400000000000060448201526064016101cb565b600054604051630842e1d160e31b81526001600160a01b038581166004830152909116906342170e8890602401602060405180830381865afa158015610aaf573d6000803e3d6000fd5b505050506040513d601f19601f82011682018060405250810190610ad39190611dcf565b610b295760405162461bcd60e51b815260206004820152602160248201527f547265617375726572206d75737420626520616374697665206f6666696369616044820152601b60fa1b60648201526084016101cb565b6001600160a01b038216610b8d5760405162461bcd60e51b815260206004820152602560248201527f50726f706f73616c206d75737420626520617070726f7665642062792063686160448201526434b936b0b760d91b60648201526084016101cb565b600054604051630842e1d160e31b81526001600160a01b038481166004830152909116906342170e8890602401602060405180830381865afa158015610bd7573d6000803e3d6000fd5b505050506040513d601f19601f82011682018060405250810190610bfb9190611dcf565b610c475760405162461bcd60e51b815260206004820181905260248201527f43686169726d616e206d75737420626520616374697665206f6666696369616c60448201526064016101cb565b60006004546001610c589190611da3565b6040805161014081018252828152602081018d81529181018c8152606082018c9052608082018b905260a082018a905260c082018990526001600160a01b0380891660e0840152871661010083015242610120830152600380546001810182556000919091528251600a9091027fc2575a0e9e593c00f959f8c92f12db2869c3395a3b0502d05e2516446f71f85b810191825593517fc2575a0e9e593c00f959f8c92f12db2869c3395a3b0502d05e2516446f71f85c8501559051939450909290917fc2575a0e9e593c00f959f8c92f12db2869c3395a3b0502d05e2516446f71f85d0190610d479082611e40565b5060608201516003820190610d5c9082611e40565b5060808201516004820190610d719082611e40565b5060a08201516005820190610d869082611e40565b5060c08201516006820190610d9b9082611e40565b5060e08201516007820180546001600160a01b039283166001600160a01b031991821617909155610100840151600884018054919093169116179055610120909101516009909101556004819055600580548b9190600090610dfe908490611da3565b92505081905550836001600160a01b03168a827e185e89cab3caec066f4a2c70981ff824e07e76d65919762fc93dbdc16f81c18c8c8c8c8a42604051610e4996959493929190611f00565b60405180910390a4600180559998505050505050505050565b610e6a611867565b6040518061010001604052806040518060400160405280601f81526020017f426172616e67617920446576656c6f706d656e742046756e642028424450290081525081526020016040518060400160405280601e81526020017f53616e6767756e69616e67204b6162617461616e2028534b292046756e64000081525081526020016040518060400160405280601681526020017543616c616d6974792046756e6420284c4452524d462960501b8152508152602001604051806060016040528060218152602001611f6d602191398152602001604051806060016040528060348152602001611fc6603491398152602001604051806060016040528060388152602001611f8e60389139815260200160405180604001604052806016815260200175506572736f6e616c205365727669636573202850532960501b81525081526020016040518060600160405280602f8152602001611ffa602f91399052919050565b610fd6611802565b600082118015610fe857506004548211155b61102a5760405162461bcd60e51b8152602060048201526013602482015272125b9d985b1a59081c1c9bdc1bdcd85b081251606a1b60448201526064016101cb565b6003611037600184611cca565b8154811061104757611047611cdd565b90600052602060002090600a020160405180610140016040529081600082015481526020016001820154815260200160028201805461108590611cf3565b80601f01602080910402602001604051908101604052809291908181526020018280546110b190611cf3565b80156110fe5780601f106110d3576101008083540402835291602001916110fe565b820191906000526020600020905b8154815290600101906020018083116110e157829003601f168201915b5050505050815260200160038201805461111790611cf3565b80601f016020809104026020016040519081016040528092919081815260200182805461114390611cf3565b80156111905780601f1061116557610100808354040283529160200191611190565b820191906000526020600020905b81548152906001019060200180831161117357829003601f168201915b505050505081526020016004820180546111a990611cf3565b80601f01602080910402602001604051908101604052809291908181526020018280546111d590611cf3565b80156112225780601f106111f757610100808354040283529160200191611222565b820191906000526020600020905b81548152906001019060200180831161120557829003601f168201915b5050505050815260200160058201805461123b90611cf3565b80601f016020809104026020016040519081016040528092919081815260200182805461126790611cf3565b80156112b45780601f10611289576101008083540402835291602001916112b4565b820191906000526020600020905b81548152906001019060200180831161129757829003601f168201915b505050505081526020016006820180546112cd90611cf3565b80601f01602080910402602001604051908101604052809291908181526020018280546112f990611cf3565b80156113465780601f1061131b57610100808354040283529160200191611346565b820191906000526020600020905b81548152906001019060200180831161132957829003601f168201915b505050918352505060078201546001600160a01b039081166020830152600883015416604082015260099091015460609091015292915050565b60606003805480602002602001604051908101604052809291908181526020016000905b828210156116f757838290600052602060002090600a02016040518061014001604052908160008201548152602001600182015481526020016002820180546113ec90611cf3565b80601f016020809104026020016040519081016040528092919081815260200182805461141890611cf3565b80156114655780601f1061143a57610100808354040283529160200191611465565b820191906000526020600020905b81548152906001019060200180831161144857829003601f168201915b5050505050815260200160038201805461147e90611cf3565b80601f01602080910402602001604051908101604052809291908181526020018280546114aa90611cf3565b80156114f75780601f106114cc576101008083540402835291602001916114f7565b820191906000526020600020905b8154815290600101906020018083116114da57829003601f168201915b5050505050815260200160048201805461151090611cf3565b80601f016020809104026020016040519081016040528092919081815260200182805461153c90611cf3565b80156115895780601f1061155e57610100808354040283529160200191611589565b820191906000526020600020905b81548152906001019060200180831161156c57829003601f168201915b505050505081526020016005820180546115a290611cf3565b80601f01602080910402602001604051908101604052809291908181526020018280546115ce90611cf3565b801561161b5780601f106115f05761010080835404028352916020019161161b565b820191906000526020600020905b8154815290600101906020018083116115fe57829003601f168201915b5050505050815260200160068201805461163490611cf3565b80601f016020809104026020016040519081016040528092919081815260200182805461166090611cf3565b80156116ad5780601f10611682576101008083540402835291602001916116ad565b820191906000526020600020905b81548152906001019060200180831161169057829003601f168201915b505050918352505060078201546001600160a01b039081166020808401919091526008840154909116604083015260099092015460609091015290825260019290920191016113a4565b50505050905090565b805160009082906040146117175750600092915050565b60005b81518110156117f857600082828151811061173757611737611cdd565b01602001516001600160f81b0319169050600360fc1b811080159061176a5750603960f81b6001600160f81b0319821611155b1580156117a05750606160f81b6001600160f81b031982161080159061179e5750603360f91b6001600160f81b0319821611155b155b80156117d55750604160f81b6001600160f81b03198216108015906117d35750602360f91b6001600160f81b0319821611155b155b156117e557506000949350505050565b50806117f081611db6565b91505061171a565b5060019392505050565b6040518061014001604052806000815260200160008152602001606081526020016060815260200160608152602001606081526020016060815260200160006001600160a01b0316815260200160006001600160a01b03168152602001600081525090565b6040518061010001604052806008905b60608152602001906001900390816118775790505090565b634e487b7160e01b600052604160045260246000fd5b600082601f8301126118b657600080fd5b813567ffffffffffffffff808211156118d1576118d161188f565b604051601f8301601f19908116603f011681019082821181831017156118f9576118f961188f565b8160405283815286602085880101111561191257600080fd5b836020870160208301376000602085830101528094505050505092915050565b6000806040838503121561194557600080fd5b82359150602083013567ffffffffffffffff81111561196357600080fd5b61196f858286016118a5565b9150509250929050565b6000806040838503121561198c57600080fd5b50508035926020909101359150565b6000815180845260005b818110156119c1576020818501810151868301820152016119a5565b506000602082860101526020601f19601f83011685010191505092915050565b600061014082518452602083015160208501526040830151816040860152611a0b8286018261199b565b91505060608301518482036060860152611a25828261199b565b91505060808301518482036080860152611a3f828261199b565b91505060a083015184820360a0860152611a59828261199b565b91505060c083015184820360c0860152611a73828261199b565b91505060e0830151611a9060e08601826001600160a01b03169052565b50610100838101516001600160a01b0316908501526101209283015192909301919091525090565b6000602080830181845280855180835260408601915060408160051b870101925083870160005b82811015611b0d57603f19888603018452611afb8583516119e1565b94509285019290850190600101611adf565b5092979650505050505050565b80356001600160a01b0381168114611b3157600080fd5b919050565b600080600080600080600080610100898b031215611b5357600080fd5b88359750602089013567ffffffffffffffff80821115611b7257600080fd5b611b7e8c838d016118a5565b985060408b0135915080821115611b9457600080fd5b611ba08c838d016118a5565b975060608b0135915080821115611bb657600080fd5b611bc28c838d016118a5565b965060808b0135915080821115611bd857600080fd5b611be48c838d016118a5565b955060a08b0135915080821115611bfa57600080fd5b50611c078b828c016118a5565b935050611c1660c08a01611b1a565b9150611c2460e08a01611b1a565b90509295985092959890939650565b6020808252600090610120830183820185845b6008811015611c7557601f19878503018352611c6384835161199b565b93509184019190840190600101611c46565b50919695505050505050565b600060208284031215611c9357600080fd5b5035919050565b602081526000611cad60208301846119e1565b9392505050565b634e487b7160e01b600052601160045260246000fd5b8181038181111561022257610222611cb4565b634e487b7160e01b600052603260045260246000fd5b600181811c90821680611d0757607f821691505b602082108103611d2757634e487b7160e01b600052602260045260246000fd5b50919050565b6000808354611d3b81611cf3565b60018281168015611d535760018114611d6857611d97565b60ff1984168752821515830287019450611d97565b8760005260208060002060005b85811015611d8e5781548a820152908401908201611d75565b50505082870194505b50929695505050505050565b8082018082111561022257610222611cb4565b600060018201611dc857611dc8611cb4565b5060010190565b600060208284031215611de157600080fd5b81518015158114611cad57600080fd5b601f821115611e3b57600081815260208120601f850160051c81016020861015611e185750805b601f850160051c820191505b81811015611e3757828155600101611e24565b5050505b505050565b815167ffffffffffffffff811115611e5a57611e5a61188f565b611e6e81611e688454611cf3565b84611df1565b602080601f831160018114611ea35760008415611e8b5750858301515b600019600386901b1c1916600185901b178555611e37565b600085815260208120601f198616915b82811015611ed257888601518255948401946001909101908401611eb3565b5085821015611ef05787850151600019600388901b60f8161c191681555b5050505050600190811b01905550565b60c081526000611f1360c083018961199b565b8281036020840152611f25818961199b565b90508281036040840152611f39818861199b565b90508281036060840152611f4d818761199b565b6001600160a01b03959095166080840152505060a0015294935050505056fe47656e64657220616e6420446576656c6f706d656e742028474144292046756e644c6f63616c20436f756e63696c20666f72207468652050726f74656374696f6e206f66204368696c6472656e20284c435043292046756e6453656e696f7220436974697a656e73202620506572736f6e732077697468204469736162696c6974792028505744292046756e644d61696e74656e616e636520616e64204f74686572204f7065726174696e6720457870656e73657320284d4f4f4529a26469706673582212206e3e595a8b5667977bbe49f3580a27c16a85c044925fa77e9ba1c04f04df514364736f6c6343000813003347656e64657220616e6420446576656c6f706d656e742028474144292046756e644c6f63616c20436f756e63696c20666f72207468652050726f74656374696f6e206f66204368696c6472656e20284c435043292046756e6453656e696f7220436974697a656e73202620506572736f6e732077697468204469736162696c6974792028505744292046756e644d61696e74656e616e636520616e64204f74686572204f7065726174696e6720457870656e73657320284d4f4f4529",
  "immutableReferences": {},
  "source": "// SPDX-License-Identifier: MIT\r\npragma solidity ^0.8.19;\r\n\r\ninterface IBarangayOfficials {\r\n    function isActiveOfficial(address _wallet) external view returns (bool);\r\n}\r\n\r\n// Custom errors for gas optimization\r\nerror InvalidFundSource();\r\n\r\ncontract ProposalContract {\r\n    IBarangayOfficials public officialsContract;\r\n\r\n    // Reentrancy guard\r\n    uint256 private _status;\r\n    uint256 private constant _NOT_ENTERED = 1;\r\n    uint256 private constant _ENTERED = 2;\r\n\r\n    // Predefined fund source categories (same as allocation types)\r\n    mapping(bytes32 => bool) private validFundSources;\r\n\r\n    struct Proposal {\r\n        uint256 id;\r\n        uint256 amount;\r\n        string purpose;\r\n        string fundSource;    // Must be one of the 8 allocation types\r\n        string expenseType;   // e.g., infrastructure, health, etc.\r\n        string proposer;      // name or role\r\n        string documentHash;\r\n        address treasurerAddress;\r\n        address chairmanAddress;\r\n        uint256 timestamp;\r\n    }\r\n\r\n    event ProposalRecorded(\r\n        uint256 indexed id,\r\n        uint256 indexed amount,\r\n        string purpose,\r\n        string fundSource,\r\n        string expenseType,\r\n        string proposer,\r\n        address indexed treasurerAddress,\r\n        address chairmanAddress,\r\n        uint256 timestamp\r\n    );\r\n\r\n    Proposal[] private proposals;\r\n    uint256 public proposalCount;\r\n    uint256 private totalProposalAmount;\r\n\r\n    modifier onlyActiveOfficial() {\r\n        require(officialsContract.isActiveOfficial(msg.sender), \"Only active officials can perform this action\");\r\n        _;\r\n    }\r\n\r\n    modifier nonReentrant() {\r\n        require(_status != _ENTERED, \"ReentrancyGuard: reentrant call\");\r\n        _status = _ENTERED;\r\n        _;\r\n        _status = _NOT_ENTERED;\r\n    }\r\n\r\n    constructor(address _officialsContractAddress) {\r\n        require(_officialsContractAddress != address(0), \"Invalid officials contract address\");\r\n        officialsContract = IBarangayOfficials(_officialsContractAddress);\r\n        _status = _NOT_ENTERED;\r\n\r\n        // Initialize valid fund sources (same as allocation types)\r\n        validFundSources[keccak256(bytes(\"Barangay Development Fund (BDP)\"))] = true;\r\n        validFundSources[keccak256(bytes(\"Sangguniang Kabataan (SK) Fund\"))] = true;\r\n        validFundSources[keccak256(bytes(\"Calamity Fund (LDRRMF)\"))] = true;\r\n        validFundSources[keccak256(bytes(\"Gender and Development (GAD) Fund\"))] = true;\r\n        validFundSources[keccak256(bytes(\"Senior Citizens & Persons with Disability (PWD) Fund\"))] = true;\r\n        validFundSources[keccak256(bytes(\"Local Council for the Protection of Children (LCPC) Fund\"))] = true;\r\n        validFundSources[keccak256(bytes(\"Personal Services (PS)\"))] = true;\r\n        validFundSources[keccak256(bytes(\"Maintenance and Other Operating Expenses (MOOE)\"))] = true;\r\n    }\r\n\r\n    function isValidDocumentHash(string memory _hash) private pure returns (bool) {\r\n        bytes memory hashBytes = bytes(_hash);\r\n        if (hashBytes.length != 64) return false;\r\n\r\n        for (uint i = 0; i < hashBytes.length; i++) {\r\n            bytes1 char = hashBytes[i];\r\n            if (!(char >= 0x30 && char <= 0x39) && // 0-9\r\n                !(char >= 0x61 && char <= 0x66) && // a-f\r\n                !(char >= 0x41 && char <= 0x46))   // A-F\r\n                return false;\r\n        }\r\n        return true;\r\n    }\r\n\r\n    function isValidFundSource(string memory _fundSource) private view returns (bool) {\r\n        return validFundSources[keccak256(bytes(_fundSource))];\r\n    }\r\n\r\n    function recordProposal(\r\n        uint256 _amount,\r\n        string memory _purpose,\r\n        string memory _fundSource,\r\n        string memory _expenseType,\r\n        string memory _proposer,\r\n        string memory _documentHash,\r\n        address _treasurerAddress,\r\n        address _chairmanAddress\r\n    ) public onlyActiveOfficial nonReentrant returns (uint256) {\r\n        require(_amount > 0, \"Amount must be > 0\");\r\n        require(bytes(_purpose).length > 0, \"Purpose required\");\r\n        require(bytes(_fundSource).length > 0, \"Fund source required\");\r\n        if (!isValidFundSource(_fundSource)) revert InvalidFundSource();\r\n        require(bytes(_expenseType).length > 0, \"Expense type required\");\r\n        require(bytes(_proposer).length > 0, \"Proposer required\");\r\n        require(bytes(_documentHash).length > 0, \"Document hash required\");\r\n        require(isValidDocumentHash(_documentHash), \"Invalid document hash format (must be 64 hex characters)\");\r\n        require(_treasurerAddress != address(0), \"Treasurer address required\");\r\n        require(officialsContract.isActiveOfficial(_treasurerAddress), \"Treasurer must be active official\");\r\n        // Approval check\r\n        require(_chairmanAddress != address(0), \"Proposal must be approved by chairman\");\r\n        require(officialsContract.isActiveOfficial(_chairmanAddress), \"Chairman must be active official\");\r\n\r\n        uint256 newId = proposalCount + 1;\r\n        proposals.push(Proposal({\r\n            id: newId,\r\n            amount: _amount,\r\n            purpose: _purpose,\r\n            fundSource: _fundSource,\r\n            expenseType: _expenseType,\r\n            proposer: _proposer,\r\n            documentHash: _documentHash,\r\n            treasurerAddress: _treasurerAddress,\r\n            chairmanAddress: _chairmanAddress,\r\n            timestamp: block.timestamp\r\n        }));\r\n        proposalCount = newId;\r\n        totalProposalAmount += _amount;\r\n\r\n        emit ProposalRecorded(newId, _amount, _purpose, _fundSource, _expenseType, _proposer, _treasurerAddress, _chairmanAddress, block.timestamp);\r\n        return newId;\r\n    }\r\n\r\n    function getProposal(uint256 _id) public view returns (Proposal memory) {\r\n        require(_id > 0 && _id <= proposalCount, \"Invalid proposal ID\");\r\n        return proposals[_id - 1];\r\n    }\r\n\r\n    function getAllProposals() public view returns (Proposal[] memory) {\r\n        return proposals;\r\n    }\r\n\r\n    function getProposalsPaginated(uint256 _offset, uint256 _limit) public view returns (Proposal[] memory) {\r\n        require(_offset < proposalCount, \"Offset out of bounds\");\r\n\r\n        uint256 end = _offset + _limit;\r\n        if (end > proposalCount) {\r\n            end = proposalCount;\r\n        }\r\n\r\n        uint256 size = end - _offset;\r\n        Proposal[] memory result = new Proposal[](size);\r\n\r\n        for (uint256 i = 0; i < size; i++) {\r\n            result[i] = proposals[_offset + i];\r\n        }\r\n\r\n        return result;\r\n    }\r\n\r\n    function getTotalProposalAmount() public view returns (uint256) {\r\n        return totalProposalAmount;\r\n    }\r\n\r\n    function verifyProposalDocument(uint256 _id, string memory _documentHash) public view returns (bool) {\r\n        require(_id > 0 && _id <= proposalCount, \"Invalid proposal ID\");\r\n        return keccak256(bytes(proposals[_id - 1].documentHash)) == keccak256(bytes(_documentHash));\r\n    }\r\n\r\n    function getValidFundSources() public pure returns (string[8] memory) {\r\n        return [\r\n            \"Barangay Development Fund (BDP)\",\r\n            \"Sangguniang Kabataan (SK) Fund\",\r\n            \"Calamity Fund (LDRRMF)\",\r\n            \"Gender and Development (GAD) Fund\",\r\n            \"Senior Citizens & Persons with Disability (PWD) Fund\",\r\n            \"Local Council for the Protection of Children (LCPC) Fund\",\r\n            \"Personal Services (PS)\",\r\n            \"Maintenance and Other Operating Expenses (MOOE)\"\r\n        ];\r\n    }\r\n}\r\n",
  "sourcePath": "D:\\Documents\\4Bs\\blockchain\\contracts\\ProposalContract.sol",
  "compiler": {
    "name": "solc",
    "version": "0.8.19+commit.7dd6d404.Emscripten.clang"
  },
  "schemaVersion": "3.4.16",
  "updatedAt": "2025-11-04T17:21:25.567Z",
  "devdoc": {
    "kind": "dev",
    "methods": {},
    "version": 1
  },
  "userdoc": {
    "kind": "user",
    "methods": {},
    "version": 1
  }
}